{"contracts/oracle/EthPriceOracle.sol":{"EthPriceOracle":{"abi":[{"anonymous":false,"inputs":[{"indexed":false,"internalType":"address","name":"callerAddress","type":"address"},{"indexed":false,"internalType":"uint256","name":"id","type":"uint256"}],"name":"GetLatestEthPriceEvent","type":"event"},{"anonymous":false,"inputs":[{"indexed":true,"internalType":"address","name":"previousOwner","type":"address"},{"indexed":true,"internalType":"address","name":"newOwner","type":"address"}],"name":"OwnershipTransferred","type":"event"},{"anonymous":false,"inputs":[{"indexed":false,"internalType":"uint256","name":"ethPrice","type":"uint256"},{"indexed":false,"internalType":"address","name":"callerAddress","type":"address"}],"name":"SetLatestEthPriceEvent","type":"event"},{"inputs":[],"name":"getLatestEthPrice","outputs":[{"internalType":"uint256","name":"","type":"uint256"}],"stateMutability":"nonpayable","type":"function"},{"inputs":[],"name":"owner","outputs":[{"internalType":"address","name":"","type":"address"}],"stateMutability":"view","type":"function"},{"inputs":[],"name":"renounceOwnership","outputs":[],"stateMutability":"nonpayable","type":"function"},{"inputs":[{"internalType":"uint256","name":"_ethPrice","type":"uint256"},{"internalType":"address","name":"_callerAddress","type":"address"},{"internalType":"uint256","name":"_id","type":"uint256"}],"name":"setLatestEthPrice","outputs":[],"stateMutability":"nonpayable","type":"function"},{"inputs":[{"internalType":"address","name":"newOwner","type":"address"}],"name":"transferOwnership","outputs":[],"stateMutability":"nonpayable","type":"function"}],"evm":{"bytecode":{"linkReferences":{},"object":"608060405260006001556103e860025534801561001b57600080fd5b5061003861002d61003d60201b60201c565b61004560201b60201c565b610109565b600033905090565b60008060009054906101000a900473ffffffffffffffffffffffffffffffffffffffff169050816000806101000a81548173ffffffffffffffffffffffffffffffffffffffff021916908373ffffffffffffffffffffffffffffffffffffffff1602179055508173ffffffffffffffffffffffffffffffffffffffff168173ffffffffffffffffffffffffffffffffffffffff167f8be0079c531659141344cd1fd0a4f28419497f9722a3daafe3b4186f6b6457e060405160405180910390a35050565b610a2c806101186000396000f3fe608060405234801561001057600080fd5b50600436106100575760003560e01c806330c0b9ec1461005c578063715018a61461007a5780638da5cb5b14610084578063cf642f1f146100a2578063f2fde38b146100be575b600080fd5b6100646100da565b6040516100719190610508565b60405180910390f35b6100826101a1565b005b61008c6101b5565b6040516100999190610564565b60405180910390f35b6100bc60048036038101906100b791906105dc565b6101de565b005b6100d860048036038101906100d3919061062f565b610321565b005b6000600160008154809291906100ef9061068b565b9190505550600060025442336001546040516020016101109392919061073d565b6040516020818303038152906040528051906020012060001c61013391906107a9565b905060016003600083815260200190815260200160002060006101000a81548160ff0219169083151502179055507f3d50a0c24e97813f35595d2f1f37dbf421d5e97f37abd4e222853e9b9c82c8d533826040516101929291906107da565b60405180910390a18091505090565b6101a96103a5565b6101b36000610423565b565b60008060009054906101000a900473ffffffffffffffffffffffffffffffffffffffff16905090565b6101e66103a5565b600115156003600083815260200190815260200160002060009054906101000a900460ff1615151461024d576040517f08c379a000000000000000000000000000000000000000000000000000000000815260040161024490610886565b60405180910390fd5b6003600082815260200190815260200160002060006101000a81549060ff021916905560008290508073ffffffffffffffffffffffffffffffffffffffff1663b5d73ba483866040518363ffffffff1660e01b81526004016102b09291906108a6565b600060405180830381600087803b1580156102ca57600080fd5b505af11580156102de573d6000803e3d6000fd5b505050507f91b860381268a473101de3379abbb70abf7ea6c9d1735cf58b9816479ff3b72784336040516103139291906108cf565b60405180910390a150505050565b6103296103a5565b600073ffffffffffffffffffffffffffffffffffffffff168173ffffffffffffffffffffffffffffffffffffffff161415610399576040517f08c379a00000000000000000000000000000000000000000000000000000000081526004016103909061096a565b60405180910390fd5b6103a281610423565b50565b6103ad6104e7565b73ffffffffffffffffffffffffffffffffffffffff166103cb6101b5565b73ffffffffffffffffffffffffffffffffffffffff1614610421576040517f08c379a0000000000000000000000000000000000000000000000000000000008152600401610418906109d6565b60405180910390fd5b565b60008060009054906101000a900473ffffffffffffffffffffffffffffffffffffffff169050816000806101000a81548173ffffffffffffffffffffffffffffffffffffffff021916908373ffffffffffffffffffffffffffffffffffffffff1602179055508173ffffffffffffffffffffffffffffffffffffffff168173ffffffffffffffffffffffffffffffffffffffff167f8be0079c531659141344cd1fd0a4f28419497f9722a3daafe3b4186f6b6457e060405160405180910390a35050565b600033905090565b6000819050919050565b610502816104ef565b82525050565b600060208201905061051d60008301846104f9565b92915050565b600073ffffffffffffffffffffffffffffffffffffffff82169050919050565b600061054e82610523565b9050919050565b61055e81610543565b82525050565b60006020820190506105796000830184610555565b92915050565b600080fd5b61058d816104ef565b811461059857600080fd5b50565b6000813590506105aa81610584565b92915050565b6105b981610543565b81146105c457600080fd5b50565b6000813590506105d6816105b0565b92915050565b6000806000606084860312156105f5576105f461057f565b5b60006106038682870161059b565b9350506020610614868287016105c7565b92505060406106258682870161059b565b9150509250925092565b6000602082840312156106455761064461057f565b5b6000610653848285016105c7565b91505092915050565b7f4e487b7100000000000000000000000000000000000000000000000000000000600052601160045260246000fd5b6000610696826104ef565b91507fffffffffffffffffffffffffffffffffffffffffffffffffffffffffffffffff8214156106c9576106c861065c565b5b600182019050919050565b6000819050919050565b6106ef6106ea826104ef565b6106d4565b82525050565b60008160601b9050919050565b600061070d826106f5565b9050919050565b600061071f82610702565b9050919050565b61073761073282610543565b610714565b82525050565b600061074982866106de565b6020820191506107598285610726565b60148201915061076982846106de565b602082019150819050949350505050565b7f4e487b7100000000000000000000000000000000000000000000000000000000600052601260045260246000fd5b60006107b4826104ef565b91506107bf836104ef565b9250826107cf576107ce61077a565b5b828206905092915050565b60006040820190506107ef6000830185610555565b6107fc60208301846104f9565b9392505050565b600082825260208201905092915050565b7f5468697320494420646f6573206e6f7420657869737420696e2045746850726960008201527f63654f7261636c652e0000000000000000000000000000000000000000000000602082015250565b6000610870602983610803565b915061087b82610814565b604082019050919050565b6000602082019050818103600083015261089f81610863565b9050919050565b60006040820190506108bb60008301856104f9565b6108c860208301846104f9565b9392505050565b60006040820190506108e460008301856104f9565b6108f16020830184610555565b9392505050565b7f4f776e61626c653a206e6577206f776e657220697320746865207a65726f206160008201527f6464726573730000000000000000000000000000000000000000000000000000602082015250565b6000610954602683610803565b915061095f826108f8565b604082019050919050565b6000602082019050818103600083015261098381610947565b9050919050565b7f4f776e61626c653a2063616c6c6572206973206e6f7420746865206f776e6572600082015250565b60006109c0602083610803565b91506109cb8261098a565b602082019050919050565b600060208201905081810360008301526109ef816109b3565b905091905056fea2646970667358221220f0ea2106ad62c2a711911e947fee8ee2a7d17672ae5bd8c4d4aa1cc30a15d1d164736f6c63430008090033","opcodes":"PUSH1 0x80 PUSH1 0x40 MSTORE PUSH1 0x0 PUSH1 0x1 SSTORE PUSH2 0x3E8 PUSH1 0x2 SSTORE CALLVALUE DUP1 ISZERO PUSH2 0x1B JUMPI PUSH1 0x0 DUP1 REVERT JUMPDEST POP PUSH2 0x38 PUSH2 0x2D PUSH2 0x3D PUSH1 0x20 SHL PUSH1 0x20 SHR JUMP JUMPDEST PUSH2 0x45 PUSH1 0x20 SHL PUSH1 0x20 SHR JUMP JUMPDEST PUSH2 0x109 JUMP JUMPDEST PUSH1 0x0 CALLER SWAP1 POP SWAP1 JUMP JUMPDEST PUSH1 0x0 DUP1 PUSH1 0x0 SWAP1 SLOAD SWAP1 PUSH2 0x100 EXP SWAP1 DIV PUSH20 0xFFFFFFFFFFFFFFFFFFFFFFFFFFFFFFFFFFFFFFFF AND SWAP1 POP DUP2 PUSH1 0x0 DUP1 PUSH2 0x100 EXP DUP2 SLOAD DUP2 PUSH20 0xFFFFFFFFFFFFFFFFFFFFFFFFFFFFFFFFFFFFFFFF MUL NOT AND SWAP1 DUP4 PUSH20 0xFFFFFFFFFFFFFFFFFFFFFFFFFFFFFFFFFFFFFFFF AND MUL OR SWAP1 SSTORE POP DUP2 PUSH20 0xFFFFFFFFFFFFFFFFFFFFFFFFFFFFFFFFFFFFFFFF AND DUP2 PUSH20 0xFFFFFFFFFFFFFFFFFFFFFFFFFFFFFFFFFFFFFFFF AND PUSH32 0x8BE0079C531659141344CD1FD0A4F28419497F9722A3DAAFE3B4186F6B6457E0 PUSH1 0x40 MLOAD PUSH1 0x40 MLOAD DUP1 SWAP2 SUB SWAP1 LOG3 POP POP JUMP JUMPDEST PUSH2 0xA2C DUP1 PUSH2 0x118 PUSH1 0x0 CODECOPY PUSH1 0x0 RETURN INVALID PUSH1 0x80 PUSH1 0x40 MSTORE CALLVALUE DUP1 ISZERO PUSH2 0x10 JUMPI PUSH1 0x0 DUP1 REVERT JUMPDEST POP PUSH1 0x4 CALLDATASIZE LT PUSH2 0x57 JUMPI PUSH1 0x0 CALLDATALOAD PUSH1 0xE0 SHR DUP1 PUSH4 0x30C0B9EC EQ PUSH2 0x5C JUMPI DUP1 PUSH4 0x715018A6 EQ PUSH2 0x7A JUMPI DUP1 PUSH4 0x8DA5CB5B EQ PUSH2 0x84 JUMPI DUP1 PUSH4 0xCF642F1F EQ PUSH2 0xA2 JUMPI DUP1 PUSH4 0xF2FDE38B EQ PUSH2 0xBE JUMPI JUMPDEST PUSH1 0x0 DUP1 REVERT JUMPDEST PUSH2 0x64 PUSH2 0xDA JUMP JUMPDEST PUSH1 0x40 MLOAD PUSH2 0x71 SWAP2 SWAP1 PUSH2 0x508 JUMP JUMPDEST PUSH1 0x40 MLOAD DUP1 SWAP2 SUB SWAP1 RETURN JUMPDEST PUSH2 0x82 PUSH2 0x1A1 JUMP JUMPDEST STOP JUMPDEST PUSH2 0x8C PUSH2 0x1B5 JUMP JUMPDEST PUSH1 0x40 MLOAD PUSH2 0x99 SWAP2 SWAP1 PUSH2 0x564 JUMP JUMPDEST PUSH1 0x40 MLOAD DUP1 SWAP2 SUB SWAP1 RETURN JUMPDEST PUSH2 0xBC PUSH1 0x4 DUP1 CALLDATASIZE SUB DUP2 ADD SWAP1 PUSH2 0xB7 SWAP2 SWAP1 PUSH2 0x5DC JUMP JUMPDEST PUSH2 0x1DE JUMP JUMPDEST STOP JUMPDEST PUSH2 0xD8 PUSH1 0x4 DUP1 CALLDATASIZE SUB DUP2 ADD SWAP1 PUSH2 0xD3 SWAP2 SWAP1 PUSH2 0x62F JUMP JUMPDEST PUSH2 0x321 JUMP JUMPDEST STOP JUMPDEST PUSH1 0x0 PUSH1 0x1 PUSH1 0x0 DUP2 SLOAD DUP1 SWAP3 SWAP2 SWAP1 PUSH2 0xEF SWAP1 PUSH2 0x68B JUMP JUMPDEST SWAP2 SWAP1 POP SSTORE POP PUSH1 0x0 PUSH1 0x2 SLOAD TIMESTAMP CALLER PUSH1 0x1 SLOAD PUSH1 0x40 MLOAD PUSH1 0x20 ADD PUSH2 0x110 SWAP4 SWAP3 SWAP2 SWAP1 PUSH2 0x73D JUMP JUMPDEST PUSH1 0x40 MLOAD PUSH1 0x20 DUP2 DUP4 SUB SUB DUP2 MSTORE SWAP1 PUSH1 0x40 MSTORE DUP1 MLOAD SWAP1 PUSH1 0x20 ADD KECCAK256 PUSH1 0x0 SHR PUSH2 0x133 SWAP2 SWAP1 PUSH2 0x7A9 JUMP JUMPDEST SWAP1 POP PUSH1 0x1 PUSH1 0x3 PUSH1 0x0 DUP4 DUP2 MSTORE PUSH1 0x20 ADD SWAP1 DUP2 MSTORE PUSH1 0x20 ADD PUSH1 0x0 KECCAK256 PUSH1 0x0 PUSH2 0x100 EXP DUP2 SLOAD DUP2 PUSH1 0xFF MUL NOT AND SWAP1 DUP4 ISZERO ISZERO MUL OR SWAP1 SSTORE POP PUSH32 0x3D50A0C24E97813F35595D2F1F37DBF421D5E97F37ABD4E222853E9B9C82C8D5 CALLER DUP3 PUSH1 0x40 MLOAD PUSH2 0x192 SWAP3 SWAP2 SWAP1 PUSH2 0x7DA JUMP JUMPDEST PUSH1 0x40 MLOAD DUP1 SWAP2 SUB SWAP1 LOG1 DUP1 SWAP2 POP POP SWAP1 JUMP JUMPDEST PUSH2 0x1A9 PUSH2 0x3A5 JUMP JUMPDEST PUSH2 0x1B3 PUSH1 0x0 PUSH2 0x423 JUMP JUMPDEST JUMP JUMPDEST PUSH1 0x0 DUP1 PUSH1 0x0 SWAP1 SLOAD SWAP1 PUSH2 0x100 EXP SWAP1 DIV PUSH20 0xFFFFFFFFFFFFFFFFFFFFFFFFFFFFFFFFFFFFFFFF AND SWAP1 POP SWAP1 JUMP JUMPDEST PUSH2 0x1E6 PUSH2 0x3A5 JUMP JUMPDEST PUSH1 0x1 ISZERO ISZERO PUSH1 0x3 PUSH1 0x0 DUP4 DUP2 MSTORE PUSH1 0x20 ADD SWAP1 DUP2 MSTORE PUSH1 0x20 ADD PUSH1 0x0 KECCAK256 PUSH1 0x0 SWAP1 SLOAD SWAP1 PUSH2 0x100 EXP SWAP1 DIV PUSH1 0xFF AND ISZERO ISZERO EQ PUSH2 0x24D JUMPI PUSH1 0x40 MLOAD PUSH32 0x8C379A000000000000000000000000000000000000000000000000000000000 DUP2 MSTORE PUSH1 0x4 ADD PUSH2 0x244 SWAP1 PUSH2 0x886 JUMP JUMPDEST PUSH1 0x40 MLOAD DUP1 SWAP2 SUB SWAP1 REVERT JUMPDEST PUSH1 0x3 PUSH1 0x0 DUP3 DUP2 MSTORE PUSH1 0x20 ADD SWAP1 DUP2 MSTORE PUSH1 0x20 ADD PUSH1 0x0 KECCAK256 PUSH1 0x0 PUSH2 0x100 EXP DUP2 SLOAD SWAP1 PUSH1 0xFF MUL NOT AND SWAP1 SSTORE PUSH1 0x0 DUP3 SWAP1 POP DUP1 PUSH20 0xFFFFFFFFFFFFFFFFFFFFFFFFFFFFFFFFFFFFFFFF AND PUSH4 0xB5D73BA4 DUP4 DUP7 PUSH1 0x40 MLOAD DUP4 PUSH4 0xFFFFFFFF AND PUSH1 0xE0 SHL DUP2 MSTORE PUSH1 0x4 ADD PUSH2 0x2B0 SWAP3 SWAP2 SWAP1 PUSH2 0x8A6 JUMP JUMPDEST PUSH1 0x0 PUSH1 0x40 MLOAD DUP1 DUP4 SUB DUP2 PUSH1 0x0 DUP8 DUP1 EXTCODESIZE ISZERO DUP1 ISZERO PUSH2 0x2CA JUMPI PUSH1 0x0 DUP1 REVERT JUMPDEST POP GAS CALL ISZERO DUP1 ISZERO PUSH2 0x2DE JUMPI RETURNDATASIZE PUSH1 0x0 DUP1 RETURNDATACOPY RETURNDATASIZE PUSH1 0x0 REVERT JUMPDEST POP POP POP POP PUSH32 0x91B860381268A473101DE3379ABBB70ABF7EA6C9D1735CF58B9816479FF3B727 DUP5 CALLER PUSH1 0x40 MLOAD PUSH2 0x313 SWAP3 SWAP2 SWAP1 PUSH2 0x8CF JUMP JUMPDEST PUSH1 0x40 MLOAD DUP1 SWAP2 SUB SWAP1 LOG1 POP POP POP POP JUMP JUMPDEST PUSH2 0x329 PUSH2 0x3A5 JUMP JUMPDEST PUSH1 0x0 PUSH20 0xFFFFFFFFFFFFFFFFFFFFFFFFFFFFFFFFFFFFFFFF AND DUP2 PUSH20 0xFFFFFFFFFFFFFFFFFFFFFFFFFFFFFFFFFFFFFFFF AND EQ ISZERO PUSH2 0x399 JUMPI PUSH1 0x40 MLOAD PUSH32 0x8C379A000000000000000000000000000000000000000000000000000000000 DUP2 MSTORE PUSH1 0x4 ADD PUSH2 0x390 SWAP1 PUSH2 0x96A JUMP JUMPDEST PUSH1 0x40 MLOAD DUP1 SWAP2 SUB SWAP1 REVERT JUMPDEST PUSH2 0x3A2 DUP2 PUSH2 0x423 JUMP JUMPDEST POP JUMP JUMPDEST PUSH2 0x3AD PUSH2 0x4E7 JUMP JUMPDEST PUSH20 0xFFFFFFFFFFFFFFFFFFFFFFFFFFFFFFFFFFFFFFFF AND PUSH2 0x3CB PUSH2 0x1B5 JUMP JUMPDEST PUSH20 0xFFFFFFFFFFFFFFFFFFFFFFFFFFFFFFFFFFFFFFFF AND EQ PUSH2 0x421 JUMPI PUSH1 0x40 MLOAD PUSH32 0x8C379A000000000000000000000000000000000000000000000000000000000 DUP2 MSTORE PUSH1 0x4 ADD PUSH2 0x418 SWAP1 PUSH2 0x9D6 JUMP JUMPDEST PUSH1 0x40 MLOAD DUP1 SWAP2 SUB SWAP1 REVERT JUMPDEST JUMP JUMPDEST PUSH1 0x0 DUP1 PUSH1 0x0 SWAP1 SLOAD SWAP1 PUSH2 0x100 EXP SWAP1 DIV PUSH20 0xFFFFFFFFFFFFFFFFFFFFFFFFFFFFFFFFFFFFFFFF AND SWAP1 POP DUP2 PUSH1 0x0 DUP1 PUSH2 0x100 EXP DUP2 SLOAD DUP2 PUSH20 0xFFFFFFFFFFFFFFFFFFFFFFFFFFFFFFFFFFFFFFFF MUL NOT AND SWAP1 DUP4 PUSH20 0xFFFFFFFFFFFFFFFFFFFFFFFFFFFFFFFFFFFFFFFF AND MUL OR SWAP1 SSTORE POP DUP2 PUSH20 0xFFFFFFFFFFFFFFFFFFFFFFFFFFFFFFFFFFFFFFFF AND DUP2 PUSH20 0xFFFFFFFFFFFFFFFFFFFFFFFFFFFFFFFFFFFFFFFF AND PUSH32 0x8BE0079C531659141344CD1FD0A4F28419497F9722A3DAAFE3B4186F6B6457E0 PUSH1 0x40 MLOAD PUSH1 0x40 MLOAD DUP1 SWAP2 SUB SWAP1 LOG3 POP POP JUMP JUMPDEST PUSH1 0x0 CALLER SWAP1 POP SWAP1 JUMP JUMPDEST PUSH1 0x0 DUP2 SWAP1 POP SWAP2 SWAP1 POP JUMP JUMPDEST PUSH2 0x502 DUP2 PUSH2 0x4EF JUMP JUMPDEST DUP3 MSTORE POP POP JUMP JUMPDEST PUSH1 0x0 PUSH1 0x20 DUP3 ADD SWAP1 POP PUSH2 0x51D PUSH1 0x0 DUP4 ADD DUP5 PUSH2 0x4F9 JUMP JUMPDEST SWAP3 SWAP2 POP POP JUMP JUMPDEST PUSH1 0x0 PUSH20 0xFFFFFFFFFFFFFFFFFFFFFFFFFFFFFFFFFFFFFFFF DUP3 AND SWAP1 POP SWAP2 SWAP1 POP JUMP JUMPDEST PUSH1 0x0 PUSH2 0x54E DUP3 PUSH2 0x523 JUMP JUMPDEST SWAP1 POP SWAP2 SWAP1 POP JUMP JUMPDEST PUSH2 0x55E DUP2 PUSH2 0x543 JUMP JUMPDEST DUP3 MSTORE POP POP JUMP JUMPDEST PUSH1 0x0 PUSH1 0x20 DUP3 ADD SWAP1 POP PUSH2 0x579 PUSH1 0x0 DUP4 ADD DUP5 PUSH2 0x555 JUMP JUMPDEST SWAP3 SWAP2 POP POP JUMP JUMPDEST PUSH1 0x0 DUP1 REVERT JUMPDEST PUSH2 0x58D DUP2 PUSH2 0x4EF JUMP JUMPDEST DUP2 EQ PUSH2 0x598 JUMPI PUSH1 0x0 DUP1 REVERT JUMPDEST POP JUMP JUMPDEST PUSH1 0x0 DUP2 CALLDATALOAD SWAP1 POP PUSH2 0x5AA DUP2 PUSH2 0x584 JUMP JUMPDEST SWAP3 SWAP2 POP POP JUMP JUMPDEST PUSH2 0x5B9 DUP2 PUSH2 0x543 JUMP JUMPDEST DUP2 EQ PUSH2 0x5C4 JUMPI PUSH1 0x0 DUP1 REVERT JUMPDEST POP JUMP JUMPDEST PUSH1 0x0 DUP2 CALLDATALOAD SWAP1 POP PUSH2 0x5D6 DUP2 PUSH2 0x5B0 JUMP JUMPDEST SWAP3 SWAP2 POP POP JUMP JUMPDEST PUSH1 0x0 DUP1 PUSH1 0x0 PUSH1 0x60 DUP5 DUP7 SUB SLT ISZERO PUSH2 0x5F5 JUMPI PUSH2 0x5F4 PUSH2 0x57F JUMP JUMPDEST JUMPDEST PUSH1 0x0 PUSH2 0x603 DUP7 DUP3 DUP8 ADD PUSH2 0x59B JUMP JUMPDEST SWAP4 POP POP PUSH1 0x20 PUSH2 0x614 DUP7 DUP3 DUP8 ADD PUSH2 0x5C7 JUMP JUMPDEST SWAP3 POP POP PUSH1 0x40 PUSH2 0x625 DUP7 DUP3 DUP8 ADD PUSH2 0x59B JUMP JUMPDEST SWAP2 POP POP SWAP3 POP SWAP3 POP SWAP3 JUMP JUMPDEST PUSH1 0x0 PUSH1 0x20 DUP3 DUP5 SUB SLT ISZERO PUSH2 0x645 JUMPI PUSH2 0x644 PUSH2 0x57F JUMP JUMPDEST JUMPDEST PUSH1 0x0 PUSH2 0x653 DUP5 DUP3 DUP6 ADD PUSH2 0x5C7 JUMP JUMPDEST SWAP2 POP POP SWAP3 SWAP2 POP POP JUMP JUMPDEST PUSH32 0x4E487B7100000000000000000000000000000000000000000000000000000000 PUSH1 0x0 MSTORE PUSH1 0x11 PUSH1 0x4 MSTORE PUSH1 0x24 PUSH1 0x0 REVERT JUMPDEST PUSH1 0x0 PUSH2 0x696 DUP3 PUSH2 0x4EF JUMP JUMPDEST SWAP2 POP PUSH32 0xFFFFFFFFFFFFFFFFFFFFFFFFFFFFFFFFFFFFFFFFFFFFFFFFFFFFFFFFFFFFFFFF DUP3 EQ ISZERO PUSH2 0x6C9 JUMPI PUSH2 0x6C8 PUSH2 0x65C JUMP JUMPDEST JUMPDEST PUSH1 0x1 DUP3 ADD SWAP1 POP SWAP2 SWAP1 POP JUMP JUMPDEST PUSH1 0x0 DUP2 SWAP1 POP SWAP2 SWAP1 POP JUMP JUMPDEST PUSH2 0x6EF PUSH2 0x6EA DUP3 PUSH2 0x4EF JUMP JUMPDEST PUSH2 0x6D4 JUMP JUMPDEST DUP3 MSTORE POP POP JUMP JUMPDEST PUSH1 0x0 DUP2 PUSH1 0x60 SHL SWAP1 POP SWAP2 SWAP1 POP JUMP JUMPDEST PUSH1 0x0 PUSH2 0x70D DUP3 PUSH2 0x6F5 JUMP JUMPDEST SWAP1 POP SWAP2 SWAP1 POP JUMP JUMPDEST PUSH1 0x0 PUSH2 0x71F DUP3 PUSH2 0x702 JUMP JUMPDEST SWAP1 POP SWAP2 SWAP1 POP JUMP JUMPDEST PUSH2 0x737 PUSH2 0x732 DUP3 PUSH2 0x543 JUMP JUMPDEST PUSH2 0x714 JUMP JUMPDEST DUP3 MSTORE POP POP JUMP JUMPDEST PUSH1 0x0 PUSH2 0x749 DUP3 DUP7 PUSH2 0x6DE JUMP JUMPDEST PUSH1 0x20 DUP3 ADD SWAP2 POP PUSH2 0x759 DUP3 DUP6 PUSH2 0x726 JUMP JUMPDEST PUSH1 0x14 DUP3 ADD SWAP2 POP PUSH2 0x769 DUP3 DUP5 PUSH2 0x6DE JUMP JUMPDEST PUSH1 0x20 DUP3 ADD SWAP2 POP DUP2 SWAP1 POP SWAP5 SWAP4 POP POP POP POP JUMP JUMPDEST PUSH32 0x4E487B7100000000000000000000000000000000000000000000000000000000 PUSH1 0x0 MSTORE PUSH1 0x12 PUSH1 0x4 MSTORE PUSH1 0x24 PUSH1 0x0 REVERT JUMPDEST PUSH1 0x0 PUSH2 0x7B4 DUP3 PUSH2 0x4EF JUMP JUMPDEST SWAP2 POP PUSH2 0x7BF DUP4 PUSH2 0x4EF JUMP JUMPDEST SWAP3 POP DUP3 PUSH2 0x7CF JUMPI PUSH2 0x7CE PUSH2 0x77A JUMP JUMPDEST JUMPDEST DUP3 DUP3 MOD SWAP1 POP SWAP3 SWAP2 POP POP JUMP JUMPDEST PUSH1 0x0 PUSH1 0x40 DUP3 ADD SWAP1 POP PUSH2 0x7EF PUSH1 0x0 DUP4 ADD DUP6 PUSH2 0x555 JUMP JUMPDEST PUSH2 0x7FC PUSH1 0x20 DUP4 ADD DUP5 PUSH2 0x4F9 JUMP JUMPDEST SWAP4 SWAP3 POP POP POP JUMP JUMPDEST PUSH1 0x0 DUP3 DUP3 MSTORE PUSH1 0x20 DUP3 ADD SWAP1 POP SWAP3 SWAP2 POP POP JUMP JUMPDEST PUSH32 0x5468697320494420646F6573206E6F7420657869737420696E20457468507269 PUSH1 0x0 DUP3 ADD MSTORE PUSH32 0x63654F7261636C652E0000000000000000000000000000000000000000000000 PUSH1 0x20 DUP3 ADD MSTORE POP JUMP JUMPDEST PUSH1 0x0 PUSH2 0x870 PUSH1 0x29 DUP4 PUSH2 0x803 JUMP JUMPDEST SWAP2 POP PUSH2 0x87B DUP3 PUSH2 0x814 JUMP JUMPDEST PUSH1 0x40 DUP3 ADD SWAP1 POP SWAP2 SWAP1 POP JUMP JUMPDEST PUSH1 0x0 PUSH1 0x20 DUP3 ADD SWAP1 POP DUP2 DUP2 SUB PUSH1 0x0 DUP4 ADD MSTORE PUSH2 0x89F DUP2 PUSH2 0x863 JUMP JUMPDEST SWAP1 POP SWAP2 SWAP1 POP JUMP JUMPDEST PUSH1 0x0 PUSH1 0x40 DUP3 ADD SWAP1 POP PUSH2 0x8BB PUSH1 0x0 DUP4 ADD DUP6 PUSH2 0x4F9 JUMP JUMPDEST PUSH2 0x8C8 PUSH1 0x20 DUP4 ADD DUP5 PUSH2 0x4F9 JUMP JUMPDEST SWAP4 SWAP3 POP POP POP JUMP JUMPDEST PUSH1 0x0 PUSH1 0x40 DUP3 ADD SWAP1 POP PUSH2 0x8E4 PUSH1 0x0 DUP4 ADD DUP6 PUSH2 0x4F9 JUMP JUMPDEST PUSH2 0x8F1 PUSH1 0x20 DUP4 ADD DUP5 PUSH2 0x555 JUMP JUMPDEST SWAP4 SWAP3 POP POP POP JUMP JUMPDEST PUSH32 0x4F776E61626C653A206E6577206F776E657220697320746865207A65726F2061 PUSH1 0x0 DUP3 ADD MSTORE PUSH32 0x6464726573730000000000000000000000000000000000000000000000000000 PUSH1 0x20 DUP3 ADD MSTORE POP JUMP JUMPDEST PUSH1 0x0 PUSH2 0x954 PUSH1 0x26 DUP4 PUSH2 0x803 JUMP JUMPDEST SWAP2 POP PUSH2 0x95F DUP3 PUSH2 0x8F8 JUMP JUMPDEST PUSH1 0x40 DUP3 ADD SWAP1 POP SWAP2 SWAP1 POP JUMP JUMPDEST PUSH1 0x0 PUSH1 0x20 DUP3 ADD SWAP1 POP DUP2 DUP2 SUB PUSH1 0x0 DUP4 ADD MSTORE PUSH2 0x983 DUP2 PUSH2 0x947 JUMP JUMPDEST SWAP1 POP SWAP2 SWAP1 POP JUMP JUMPDEST PUSH32 0x4F776E61626C653A2063616C6C6572206973206E6F7420746865206F776E6572 PUSH1 0x0 DUP3 ADD MSTORE POP JUMP JUMPDEST PUSH1 0x0 PUSH2 0x9C0 PUSH1 0x20 DUP4 PUSH2 0x803 JUMP JUMPDEST SWAP2 POP PUSH2 0x9CB DUP3 PUSH2 0x98A JUMP JUMPDEST PUSH1 0x20 DUP3 ADD SWAP1 POP SWAP2 SWAP1 POP JUMP JUMPDEST PUSH1 0x0 PUSH1 0x20 DUP3 ADD SWAP1 POP DUP2 DUP2 SUB PUSH1 0x0 DUP4 ADD MSTORE PUSH2 0x9EF DUP2 PUSH2 0x9B3 JUMP JUMPDEST SWAP1 POP SWAP2 SWAP1 POP JUMP INVALID LOG2 PUSH5 0x6970667358 0x22 SLT KECCAK256 CREATE 0xEA 0x21 MOD 0xAD PUSH3 0xC2A711 SWAP2 0x1E SWAP5 PUSH32 0xEE8EE2A7D17672AE5BD8C4D4AA1CC30A15D1D164736F6C634300080900330000 "},"methodIdentifiers":{"getLatestEthPrice()":"30c0b9ec","owner()":"8da5cb5b","renounceOwnership()":"715018a6","setLatestEthPrice(uint256,address,uint256)":"cf642f1f","transferOwnership(address)":"f2fde38b"}}}}}