{"contracts/CallerContract.sol":{"CallerContract":{"abi":[{"anonymous":false,"inputs":[{"indexed":false,"internalType":"uint256","name":"newPrice","type":"uint256"},{"indexed":false,"internalType":"uint256","name":"id","type":"uint256"}],"name":"PriceUpdatedEvent","type":"event"},{"anonymous":false,"inputs":[{"indexed":true,"internalType":"uint256","name":"id","type":"uint256"}],"name":"ReceivedNewRequestIdEvent","type":"event"},{"anonymous":false,"inputs":[{"indexed":true,"internalType":"address","name":"newOracleAddress","type":"address"}],"name":"newOracleAddressEvent","type":"event"},{"inputs":[{"internalType":"uint256","name":"_id","type":"uint256"},{"internalType":"uint256","name":"_price","type":"uint256"}],"name":"callback","outputs":[],"stateMutability":"nonpayable","type":"function"},{"inputs":[{"internalType":"address","name":"_oracleAddress","type":"address"}],"name":"setOracleInstanceAddress","outputs":[],"stateMutability":"nonpayable","type":"function"},{"inputs":[],"name":"updateEthPrice","outputs":[],"stateMutability":"nonpayable","type":"function"}],"evm":{"bytecode":{"linkReferences":{},"object":"608060405234801561001057600080fd5b506106b9806100206000396000f3fe608060405234801561001057600080fd5b50600436106100415760003560e01c806323c7e4a214610046578063b5d73ba414610050578063e9e17a9e1461006c575b600080fd5b61004e610088565b005b61006a6004803603810190610065919061042f565b61018a565b005b610086600480360381019061008191906104cd565b6102e8565b005b6000600160009054906101000a900473ffffffffffffffffffffffffffffffffffffffff1673ffffffffffffffffffffffffffffffffffffffff166330c0b9ec6040518163ffffffff1660e01b8152600401602060405180830381600087803b1580156100f457600080fd5b505af1158015610108573d6000803e3d6000fd5b505050506040513d601f19601f8201168201806040525081019061012c919061050f565b905060016003600083815260200190815260200160002060006101000a81548160ff021916908315150217905550807f3ed150819af981e387450beb90ec379b8b322150dbb299d492b108c59a623e4b60405160405180910390a250565b600260009054906101000a900473ffffffffffffffffffffffffffffffffffffffff1673ffffffffffffffffffffffffffffffffffffffff163373ffffffffffffffffffffffffffffffffffffffff161461021a576040517f08c379a000000000000000000000000000000000000000000000000000000000815260040161021190610599565b60405180910390fd5b600115156003600084815260200190815260200160002060009054906101000a900460ff16151514610281576040517f08c379a00000000000000000000000000000000000000000000000000000000081526004016102789061062b565b60405180910390fd5b806000819055506003600083815260200190815260200160002060006101000a81549060ff02191690557f6b69e4f2aedf7e65a79ecaf16e8869b2b99c87e341f2c51286bfd4a7fc3b996981836040516102dc92919061065a565b60405180910390a15050565b80600260006101000a81548173ffffffffffffffffffffffffffffffffffffffff021916908373ffffffffffffffffffffffffffffffffffffffff160217905550600260009054906101000a900473ffffffffffffffffffffffffffffffffffffffff16600160006101000a81548173ffffffffffffffffffffffffffffffffffffffff021916908373ffffffffffffffffffffffffffffffffffffffff160217905550600260009054906101000a900473ffffffffffffffffffffffffffffffffffffffff1673ffffffffffffffffffffffffffffffffffffffff167f441e3b056b114797955165bd03bb8393fc1658a713f09225de4745a8d068bf7d60405160405180910390a250565b600080fd5b6000819050919050565b61040c816103f9565b811461041757600080fd5b50565b60008135905061042981610403565b92915050565b60008060408385031215610446576104456103f4565b5b60006104548582860161041a565b92505060206104658582860161041a565b9150509250929050565b600073ffffffffffffffffffffffffffffffffffffffff82169050919050565b600061049a8261046f565b9050919050565b6104aa8161048f565b81146104b557600080fd5b50565b6000813590506104c7816104a1565b92915050565b6000602082840312156104e3576104e26103f4565b5b60006104f1848285016104b8565b91505092915050565b60008151905061050981610403565b92915050565b600060208284031215610525576105246103f4565b5b6000610533848285016104fa565b91505092915050565b600082825260208201905092915050565b7f596f7520617265206e6f7420746865206f7261636c652e000000000000000000600082015250565b600061058360178361053c565b915061058e8261054d565b602082019050919050565b600060208201905081810360008301526105b281610576565b9050919050565b7f5468697320494420646f6573206e6f7420657869737420696e2043616c6c657260008201527f436f6e74726163742e0000000000000000000000000000000000000000000000602082015250565b600061061560298361053c565b9150610620826105b9565b604082019050919050565b6000602082019050818103600083015261064481610608565b9050919050565b610654816103f9565b82525050565b600060408201905061066f600083018561064b565b61067c602083018461064b565b939250505056fea26469706673582212203118e694fcd985b28fd86b6534127e9b0f9a2a6efcb192d888df4c93818a65d064736f6c63430008090033","opcodes":"PUSH1 0x80 PUSH1 0x40 MSTORE CALLVALUE DUP1 ISZERO PUSH2 0x10 JUMPI PUSH1 0x0 DUP1 REVERT JUMPDEST POP PUSH2 0x6B9 DUP1 PUSH2 0x20 PUSH1 0x0 CODECOPY PUSH1 0x0 RETURN INVALID PUSH1 0x80 PUSH1 0x40 MSTORE CALLVALUE DUP1 ISZERO PUSH2 0x10 JUMPI PUSH1 0x0 DUP1 REVERT JUMPDEST POP PUSH1 0x4 CALLDATASIZE LT PUSH2 0x41 JUMPI PUSH1 0x0 CALLDATALOAD PUSH1 0xE0 SHR DUP1 PUSH4 0x23C7E4A2 EQ PUSH2 0x46 JUMPI DUP1 PUSH4 0xB5D73BA4 EQ PUSH2 0x50 JUMPI DUP1 PUSH4 0xE9E17A9E EQ PUSH2 0x6C JUMPI JUMPDEST PUSH1 0x0 DUP1 REVERT JUMPDEST PUSH2 0x4E PUSH2 0x88 JUMP JUMPDEST STOP JUMPDEST PUSH2 0x6A PUSH1 0x4 DUP1 CALLDATASIZE SUB DUP2 ADD SWAP1 PUSH2 0x65 SWAP2 SWAP1 PUSH2 0x42F JUMP JUMPDEST PUSH2 0x18A JUMP JUMPDEST STOP JUMPDEST PUSH2 0x86 PUSH1 0x4 DUP1 CALLDATASIZE SUB DUP2 ADD SWAP1 PUSH2 0x81 SWAP2 SWAP1 PUSH2 0x4CD JUMP JUMPDEST PUSH2 0x2E8 JUMP JUMPDEST STOP JUMPDEST PUSH1 0x0 PUSH1 0x1 PUSH1 0x0 SWAP1 SLOAD SWAP1 PUSH2 0x100 EXP SWAP1 DIV PUSH20 0xFFFFFFFFFFFFFFFFFFFFFFFFFFFFFFFFFFFFFFFF AND PUSH20 0xFFFFFFFFFFFFFFFFFFFFFFFFFFFFFFFFFFFFFFFF AND PUSH4 0x30C0B9EC PUSH1 0x40 MLOAD DUP2 PUSH4 0xFFFFFFFF AND PUSH1 0xE0 SHL DUP2 MSTORE PUSH1 0x4 ADD PUSH1 0x20 PUSH1 0x40 MLOAD DUP1 DUP4 SUB DUP2 PUSH1 0x0 DUP8 DUP1 EXTCODESIZE ISZERO DUP1 ISZERO PUSH2 0xF4 JUMPI PUSH1 0x0 DUP1 REVERT JUMPDEST POP GAS CALL ISZERO DUP1 ISZERO PUSH2 0x108 JUMPI RETURNDATASIZE PUSH1 0x0 DUP1 RETURNDATACOPY RETURNDATASIZE PUSH1 0x0 REVERT JUMPDEST POP POP POP POP PUSH1 0x40 MLOAD RETURNDATASIZE PUSH1 0x1F NOT PUSH1 0x1F DUP3 ADD AND DUP3 ADD DUP1 PUSH1 0x40 MSTORE POP DUP2 ADD SWAP1 PUSH2 0x12C SWAP2 SWAP1 PUSH2 0x50F JUMP JUMPDEST SWAP1 POP PUSH1 0x1 PUSH1 0x3 PUSH1 0x0 DUP4 DUP2 MSTORE PUSH1 0x20 ADD SWAP1 DUP2 MSTORE PUSH1 0x20 ADD PUSH1 0x0 KECCAK256 PUSH1 0x0 PUSH2 0x100 EXP DUP2 SLOAD DUP2 PUSH1 0xFF MUL NOT AND SWAP1 DUP4 ISZERO ISZERO MUL OR SWAP1 SSTORE POP DUP1 PUSH32 0x3ED150819AF981E387450BEB90EC379B8B322150DBB299D492B108C59A623E4B PUSH1 0x40 MLOAD PUSH1 0x40 MLOAD DUP1 SWAP2 SUB SWAP1 LOG2 POP JUMP JUMPDEST PUSH1 0x2 PUSH1 0x0 SWAP1 SLOAD SWAP1 PUSH2 0x100 EXP SWAP1 DIV PUSH20 0xFFFFFFFFFFFFFFFFFFFFFFFFFFFFFFFFFFFFFFFF AND PUSH20 0xFFFFFFFFFFFFFFFFFFFFFFFFFFFFFFFFFFFFFFFF AND CALLER PUSH20 0xFFFFFFFFFFFFFFFFFFFFFFFFFFFFFFFFFFFFFFFF AND EQ PUSH2 0x21A JUMPI PUSH1 0x40 MLOAD PUSH32 0x8C379A000000000000000000000000000000000000000000000000000000000 DUP2 MSTORE PUSH1 0x4 ADD PUSH2 0x211 SWAP1 PUSH2 0x599 JUMP JUMPDEST PUSH1 0x40 MLOAD DUP1 SWAP2 SUB SWAP1 REVERT JUMPDEST PUSH1 0x1 ISZERO ISZERO PUSH1 0x3 PUSH1 0x0 DUP5 DUP2 MSTORE PUSH1 0x20 ADD SWAP1 DUP2 MSTORE PUSH1 0x20 ADD PUSH1 0x0 KECCAK256 PUSH1 0x0 SWAP1 SLOAD SWAP1 PUSH2 0x100 EXP SWAP1 DIV PUSH1 0xFF AND ISZERO ISZERO EQ PUSH2 0x281 JUMPI PUSH1 0x40 MLOAD PUSH32 0x8C379A000000000000000000000000000000000000000000000000000000000 DUP2 MSTORE PUSH1 0x4 ADD PUSH2 0x278 SWAP1 PUSH2 0x62B JUMP JUMPDEST PUSH1 0x40 MLOAD DUP1 SWAP2 SUB SWAP1 REVERT JUMPDEST DUP1 PUSH1 0x0 DUP2 SWAP1 SSTORE POP PUSH1 0x3 PUSH1 0x0 DUP4 DUP2 MSTORE PUSH1 0x20 ADD SWAP1 DUP2 MSTORE PUSH1 0x20 ADD PUSH1 0x0 KECCAK256 PUSH1 0x0 PUSH2 0x100 EXP DUP2 SLOAD SWAP1 PUSH1 0xFF MUL NOT AND SWAP1 SSTORE PUSH32 0x6B69E4F2AEDF7E65A79ECAF16E8869B2B99C87E341F2C51286BFD4A7FC3B9969 DUP2 DUP4 PUSH1 0x40 MLOAD PUSH2 0x2DC SWAP3 SWAP2 SWAP1 PUSH2 0x65A JUMP JUMPDEST PUSH1 0x40 MLOAD DUP1 SWAP2 SUB SWAP1 LOG1 POP POP JUMP JUMPDEST DUP1 PUSH1 0x2 PUSH1 0x0 PUSH2 0x100 EXP DUP2 SLOAD DUP2 PUSH20 0xFFFFFFFFFFFFFFFFFFFFFFFFFFFFFFFFFFFFFFFF MUL NOT AND SWAP1 DUP4 PUSH20 0xFFFFFFFFFFFFFFFFFFFFFFFFFFFFFFFFFFFFFFFF AND MUL OR SWAP1 SSTORE POP PUSH1 0x2 PUSH1 0x0 SWAP1 SLOAD SWAP1 PUSH2 0x100 EXP SWAP1 DIV PUSH20 0xFFFFFFFFFFFFFFFFFFFFFFFFFFFFFFFFFFFFFFFF AND PUSH1 0x1 PUSH1 0x0 PUSH2 0x100 EXP DUP2 SLOAD DUP2 PUSH20 0xFFFFFFFFFFFFFFFFFFFFFFFFFFFFFFFFFFFFFFFF MUL NOT AND SWAP1 DUP4 PUSH20 0xFFFFFFFFFFFFFFFFFFFFFFFFFFFFFFFFFFFFFFFF AND MUL OR SWAP1 SSTORE POP PUSH1 0x2 PUSH1 0x0 SWAP1 SLOAD SWAP1 PUSH2 0x100 EXP SWAP1 DIV PUSH20 0xFFFFFFFFFFFFFFFFFFFFFFFFFFFFFFFFFFFFFFFF AND PUSH20 0xFFFFFFFFFFFFFFFFFFFFFFFFFFFFFFFFFFFFFFFF AND PUSH32 0x441E3B056B114797955165BD03BB8393FC1658A713F09225DE4745A8D068BF7D PUSH1 0x40 MLOAD PUSH1 0x40 MLOAD DUP1 SWAP2 SUB SWAP1 LOG2 POP JUMP JUMPDEST PUSH1 0x0 DUP1 REVERT JUMPDEST PUSH1 0x0 DUP2 SWAP1 POP SWAP2 SWAP1 POP JUMP JUMPDEST PUSH2 0x40C DUP2 PUSH2 0x3F9 JUMP JUMPDEST DUP2 EQ PUSH2 0x417 JUMPI PUSH1 0x0 DUP1 REVERT JUMPDEST POP JUMP JUMPDEST PUSH1 0x0 DUP2 CALLDATALOAD SWAP1 POP PUSH2 0x429 DUP2 PUSH2 0x403 JUMP JUMPDEST SWAP3 SWAP2 POP POP JUMP JUMPDEST PUSH1 0x0 DUP1 PUSH1 0x40 DUP4 DUP6 SUB SLT ISZERO PUSH2 0x446 JUMPI PUSH2 0x445 PUSH2 0x3F4 JUMP JUMPDEST JUMPDEST PUSH1 0x0 PUSH2 0x454 DUP6 DUP3 DUP7 ADD PUSH2 0x41A JUMP JUMPDEST SWAP3 POP POP PUSH1 0x20 PUSH2 0x465 DUP6 DUP3 DUP7 ADD PUSH2 0x41A JUMP JUMPDEST SWAP2 POP POP SWAP3 POP SWAP3 SWAP1 POP JUMP JUMPDEST PUSH1 0x0 PUSH20 0xFFFFFFFFFFFFFFFFFFFFFFFFFFFFFFFFFFFFFFFF DUP3 AND SWAP1 POP SWAP2 SWAP1 POP JUMP JUMPDEST PUSH1 0x0 PUSH2 0x49A DUP3 PUSH2 0x46F JUMP JUMPDEST SWAP1 POP SWAP2 SWAP1 POP JUMP JUMPDEST PUSH2 0x4AA DUP2 PUSH2 0x48F JUMP JUMPDEST DUP2 EQ PUSH2 0x4B5 JUMPI PUSH1 0x0 DUP1 REVERT JUMPDEST POP JUMP JUMPDEST PUSH1 0x0 DUP2 CALLDATALOAD SWAP1 POP PUSH2 0x4C7 DUP2 PUSH2 0x4A1 JUMP JUMPDEST SWAP3 SWAP2 POP POP JUMP JUMPDEST PUSH1 0x0 PUSH1 0x20 DUP3 DUP5 SUB SLT ISZERO PUSH2 0x4E3 JUMPI PUSH2 0x4E2 PUSH2 0x3F4 JUMP JUMPDEST JUMPDEST PUSH1 0x0 PUSH2 0x4F1 DUP5 DUP3 DUP6 ADD PUSH2 0x4B8 JUMP JUMPDEST SWAP2 POP POP SWAP3 SWAP2 POP POP JUMP JUMPDEST PUSH1 0x0 DUP2 MLOAD SWAP1 POP PUSH2 0x509 DUP2 PUSH2 0x403 JUMP JUMPDEST SWAP3 SWAP2 POP POP JUMP JUMPDEST PUSH1 0x0 PUSH1 0x20 DUP3 DUP5 SUB SLT ISZERO PUSH2 0x525 JUMPI PUSH2 0x524 PUSH2 0x3F4 JUMP JUMPDEST JUMPDEST PUSH1 0x0 PUSH2 0x533 DUP5 DUP3 DUP6 ADD PUSH2 0x4FA JUMP JUMPDEST SWAP2 POP POP SWAP3 SWAP2 POP POP JUMP JUMPDEST PUSH1 0x0 DUP3 DUP3 MSTORE PUSH1 0x20 DUP3 ADD SWAP1 POP SWAP3 SWAP2 POP POP JUMP JUMPDEST PUSH32 0x596F7520617265206E6F7420746865206F7261636C652E000000000000000000 PUSH1 0x0 DUP3 ADD MSTORE POP JUMP JUMPDEST PUSH1 0x0 PUSH2 0x583 PUSH1 0x17 DUP4 PUSH2 0x53C JUMP JUMPDEST SWAP2 POP PUSH2 0x58E DUP3 PUSH2 0x54D JUMP JUMPDEST PUSH1 0x20 DUP3 ADD SWAP1 POP SWAP2 SWAP1 POP JUMP JUMPDEST PUSH1 0x0 PUSH1 0x20 DUP3 ADD SWAP1 POP DUP2 DUP2 SUB PUSH1 0x0 DUP4 ADD MSTORE PUSH2 0x5B2 DUP2 PUSH2 0x576 JUMP JUMPDEST SWAP1 POP SWAP2 SWAP1 POP JUMP JUMPDEST PUSH32 0x5468697320494420646F6573206E6F7420657869737420696E2043616C6C6572 PUSH1 0x0 DUP3 ADD MSTORE PUSH32 0x436F6E74726163742E0000000000000000000000000000000000000000000000 PUSH1 0x20 DUP3 ADD MSTORE POP JUMP JUMPDEST PUSH1 0x0 PUSH2 0x615 PUSH1 0x29 DUP4 PUSH2 0x53C JUMP JUMPDEST SWAP2 POP PUSH2 0x620 DUP3 PUSH2 0x5B9 JUMP JUMPDEST PUSH1 0x40 DUP3 ADD SWAP1 POP SWAP2 SWAP1 POP JUMP JUMPDEST PUSH1 0x0 PUSH1 0x20 DUP3 ADD SWAP1 POP DUP2 DUP2 SUB PUSH1 0x0 DUP4 ADD MSTORE PUSH2 0x644 DUP2 PUSH2 0x608 JUMP JUMPDEST SWAP1 POP SWAP2 SWAP1 POP JUMP JUMPDEST PUSH2 0x654 DUP2 PUSH2 0x3F9 JUMP JUMPDEST DUP3 MSTORE POP POP JUMP JUMPDEST PUSH1 0x0 PUSH1 0x40 DUP3 ADD SWAP1 POP PUSH2 0x66F PUSH1 0x0 DUP4 ADD DUP6 PUSH2 0x64B JUMP JUMPDEST PUSH2 0x67C PUSH1 0x20 DUP4 ADD DUP5 PUSH2 0x64B JUMP JUMPDEST SWAP4 SWAP3 POP POP POP JUMP INVALID LOG2 PUSH5 0x6970667358 0x22 SLT KECCAK256 BALANCE XOR 0xE6 SWAP5 0xFC 0xD9 DUP6 0xB2 DUP16 0xD8 PUSH12 0x6534127E9B0F9A2A6EFCB192 0xD8 DUP9 0xDF 0x4C SWAP4 DUP2 DUP11 PUSH6 0xD064736F6C63 NUMBER STOP ADDMOD MULMOD STOP CALLER "},"methodIdentifiers":{"callback(uint256,uint256)":"b5d73ba4","setOracleInstanceAddress(address)":"e9e17a9e","updateEthPrice()":"23c7e4a2"}}}}}