{"contracts/oracle/EthPriceOracle.sol":{"EthPriceOracle":{"abi":[{"anonymous":false,"inputs":[{"indexed":false,"internalType":"address","name":"callerAddress","type":"address"},{"indexed":false,"internalType":"uint256","name":"id","type":"uint256"}],"name":"GetLatestEthPriceEvent","type":"event"},{"anonymous":false,"inputs":[{"indexed":true,"internalType":"address","name":"previousOwner","type":"address"},{"indexed":true,"internalType":"address","name":"newOwner","type":"address"}],"name":"OwnershipTransferred","type":"event"},{"anonymous":false,"inputs":[{"indexed":false,"internalType":"uint256","name":"ethPrice","type":"uint256"},{"indexed":false,"internalType":"address","name":"callerAddress","type":"address"}],"name":"SetLatestEthPriceEvent","type":"event"},{"inputs":[],"name":"getLatestEthPrice","outputs":[{"internalType":"uint256","name":"","type":"uint256"}],"stateMutability":"nonpayable","type":"function"},{"inputs":[],"name":"owner","outputs":[{"internalType":"address","name":"","type":"address"}],"stateMutability":"view","type":"function"},{"inputs":[],"name":"renounceOwnership","outputs":[],"stateMutability":"nonpayable","type":"function"},{"inputs":[{"internalType":"uint256","name":"_ethPrice","type":"uint256"},{"internalType":"uint256","name":"_id","type":"uint256"}],"name":"setLatestEthPrice","outputs":[],"stateMutability":"nonpayable","type":"function"},{"inputs":[{"internalType":"address","name":"newOwner","type":"address"}],"name":"transferOwnership","outputs":[],"stateMutability":"nonpayable","type":"function"}],"evm":{"bytecode":{"linkReferences":{},"object":"608060405260006001556103e860025534801561001b57600080fd5b5061003861002d61003d60201b60201c565b61004560201b60201c565b610109565b600033905090565b60008060009054906101000a900473ffffffffffffffffffffffffffffffffffffffff169050816000806101000a81548173ffffffffffffffffffffffffffffffffffffffff021916908373ffffffffffffffffffffffffffffffffffffffff1602179055508173ffffffffffffffffffffffffffffffffffffffff168173ffffffffffffffffffffffffffffffffffffffff167f8be0079c531659141344cd1fd0a4f28419497f9722a3daafe3b4186f6b6457e060405160405180910390a35050565b610954806101186000396000f3fe608060405234801561001057600080fd5b50600436106100575760003560e01c806330c0b9ec1461005c578063715018a61461007a5780637262c33f146100845780638da5cb5b146100a0578063f2fde38b146100be575b600080fd5b6100646100da565b6040516100719190610493565b60405180910390f35b6100826101a1565b005b61009e600480360381019061009991906104df565b6101b5565b005b6100a8610284565b6040516100b59190610560565b60405180910390f35b6100d860048036038101906100d391906105a7565b6102ad565b005b6000600160008154809291906100ef90610603565b919050555060006002544233600154604051602001610110939291906106b4565b6040516020818303038152906040528051906020012060001c6101339190610720565b905060016003600083815260200190815260200160002060006101000a81548160ff0219169083151502179055507f3d50a0c24e97813f35595d2f1f37dbf421d5e97f37abd4e222853e9b9c82c8d53382604051610192929190610751565b60405180910390a18091505090565b6101a9610330565b6101b360006103ae565b565b6101bd610330565b600115156003600083815260200190815260200160002060009054906101000a900460ff16151514610224576040517f08c379a000000000000000000000000000000000000000000000000000000000815260040161021b906107d7565b60405180910390fd5b6003600082815260200190815260200160002060006101000a81549060ff02191690557f91b860381268a473101de3379abbb70abf7ea6c9d1735cf58b9816479ff3b72782336040516102789291906107f7565b60405180910390a15050565b60008060009054906101000a900473ffffffffffffffffffffffffffffffffffffffff16905090565b6102b5610330565b600073ffffffffffffffffffffffffffffffffffffffff168173ffffffffffffffffffffffffffffffffffffffff1603610324576040517f08c379a000000000000000000000000000000000000000000000000000000000815260040161031b90610892565b60405180910390fd5b61032d816103ae565b50565b610338610472565b73ffffffffffffffffffffffffffffffffffffffff16610356610284565b73ffffffffffffffffffffffffffffffffffffffff16146103ac576040517f08c379a00000000000000000000000000000000000000000000000000000000081526004016103a3906108fe565b60405180910390fd5b565b60008060009054906101000a900473ffffffffffffffffffffffffffffffffffffffff169050816000806101000a81548173ffffffffffffffffffffffffffffffffffffffff021916908373ffffffffffffffffffffffffffffffffffffffff1602179055508173ffffffffffffffffffffffffffffffffffffffff168173ffffffffffffffffffffffffffffffffffffffff167f8be0079c531659141344cd1fd0a4f28419497f9722a3daafe3b4186f6b6457e060405160405180910390a35050565b600033905090565b6000819050919050565b61048d8161047a565b82525050565b60006020820190506104a86000830184610484565b92915050565b600080fd5b6104bc8161047a565b81146104c757600080fd5b50565b6000813590506104d9816104b3565b92915050565b600080604083850312156104f6576104f56104ae565b5b6000610504858286016104ca565b9250506020610515858286016104ca565b9150509250929050565b600073ffffffffffffffffffffffffffffffffffffffff82169050919050565b600061054a8261051f565b9050919050565b61055a8161053f565b82525050565b60006020820190506105756000830184610551565b92915050565b6105848161053f565b811461058f57600080fd5b50565b6000813590506105a18161057b565b92915050565b6000602082840312156105bd576105bc6104ae565b5b60006105cb84828501610592565b91505092915050565b7f4e487b7100000000000000000000000000000000000000000000000000000000600052601160045260246000fd5b600061060e8261047a565b91507fffffffffffffffffffffffffffffffffffffffffffffffffffffffffffffffff82036106405761063f6105d4565b5b600182019050919050565b6000819050919050565b6106666106618261047a565b61064b565b82525050565b60008160601b9050919050565b60006106848261066c565b9050919050565b600061069682610679565b9050919050565b6106ae6106a98261053f565b61068b565b82525050565b60006106c08286610655565b6020820191506106d0828561069d565b6014820191506106e08284610655565b602082019150819050949350505050565b7f4e487b7100000000000000000000000000000000000000000000000000000000600052601260045260246000fd5b600061072b8261047a565b91506107368361047a565b925082610746576107456106f1565b5b828206905092915050565b60006040820190506107666000830185610551565b6107736020830184610484565b9392505050565b600082825260208201905092915050565b7f5468697320494420646f6573206e6f742065786973742e000000000000000000600082015250565b60006107c160178361077a565b91506107cc8261078b565b602082019050919050565b600060208201905081810360008301526107f0816107b4565b9050919050565b600060408201905061080c6000830185610484565b6108196020830184610551565b9392505050565b7f4f776e61626c653a206e6577206f776e657220697320746865207a65726f206160008201527f6464726573730000000000000000000000000000000000000000000000000000602082015250565b600061087c60268361077a565b915061088782610820565b604082019050919050565b600060208201905081810360008301526108ab8161086f565b9050919050565b7f4f776e61626c653a2063616c6c6572206973206e6f7420746865206f776e6572600082015250565b60006108e860208361077a565b91506108f3826108b2565b602082019050919050565b60006020820190508181036000830152610917816108db565b905091905056fea26469706673582212207e0d23744fb7f5e7f994f0ec8c8c7d30ea0b1c9c6a1d4d94c7184d722e6807fd64736f6c63430008110033","opcodes":"PUSH1 0x80 PUSH1 0x40 MSTORE PUSH1 0x0 PUSH1 0x1 SSTORE PUSH2 0x3E8 PUSH1 0x2 SSTORE CALLVALUE DUP1 ISZERO PUSH2 0x1B JUMPI PUSH1 0x0 DUP1 REVERT JUMPDEST POP PUSH2 0x38 PUSH2 0x2D PUSH2 0x3D PUSH1 0x20 SHL PUSH1 0x20 SHR JUMP JUMPDEST PUSH2 0x45 PUSH1 0x20 SHL PUSH1 0x20 SHR JUMP JUMPDEST PUSH2 0x109 JUMP JUMPDEST PUSH1 0x0 CALLER SWAP1 POP SWAP1 JUMP JUMPDEST PUSH1 0x0 DUP1 PUSH1 0x0 SWAP1 SLOAD SWAP1 PUSH2 0x100 EXP SWAP1 DIV PUSH20 0xFFFFFFFFFFFFFFFFFFFFFFFFFFFFFFFFFFFFFFFF AND SWAP1 POP DUP2 PUSH1 0x0 DUP1 PUSH2 0x100 EXP DUP2 SLOAD DUP2 PUSH20 0xFFFFFFFFFFFFFFFFFFFFFFFFFFFFFFFFFFFFFFFF MUL NOT AND SWAP1 DUP4 PUSH20 0xFFFFFFFFFFFFFFFFFFFFFFFFFFFFFFFFFFFFFFFF AND MUL OR SWAP1 SSTORE POP DUP2 PUSH20 0xFFFFFFFFFFFFFFFFFFFFFFFFFFFFFFFFFFFFFFFF AND DUP2 PUSH20 0xFFFFFFFFFFFFFFFFFFFFFFFFFFFFFFFFFFFFFFFF AND PUSH32 0x8BE0079C531659141344CD1FD0A4F28419497F9722A3DAAFE3B4186F6B6457E0 PUSH1 0x40 MLOAD PUSH1 0x40 MLOAD DUP1 SWAP2 SUB SWAP1 LOG3 POP POP JUMP JUMPDEST PUSH2 0x954 DUP1 PUSH2 0x118 PUSH1 0x0 CODECOPY PUSH1 0x0 RETURN INVALID PUSH1 0x80 PUSH1 0x40 MSTORE CALLVALUE DUP1 ISZERO PUSH2 0x10 JUMPI PUSH1 0x0 DUP1 REVERT JUMPDEST POP PUSH1 0x4 CALLDATASIZE LT PUSH2 0x57 JUMPI PUSH1 0x0 CALLDATALOAD PUSH1 0xE0 SHR DUP1 PUSH4 0x30C0B9EC EQ PUSH2 0x5C JUMPI DUP1 PUSH4 0x715018A6 EQ PUSH2 0x7A JUMPI DUP1 PUSH4 0x7262C33F EQ PUSH2 0x84 JUMPI DUP1 PUSH4 0x8DA5CB5B EQ PUSH2 0xA0 JUMPI DUP1 PUSH4 0xF2FDE38B EQ PUSH2 0xBE JUMPI JUMPDEST PUSH1 0x0 DUP1 REVERT JUMPDEST PUSH2 0x64 PUSH2 0xDA JUMP JUMPDEST PUSH1 0x40 MLOAD PUSH2 0x71 SWAP2 SWAP1 PUSH2 0x493 JUMP JUMPDEST PUSH1 0x40 MLOAD DUP1 SWAP2 SUB SWAP1 RETURN JUMPDEST PUSH2 0x82 PUSH2 0x1A1 JUMP JUMPDEST STOP JUMPDEST PUSH2 0x9E PUSH1 0x4 DUP1 CALLDATASIZE SUB DUP2 ADD SWAP1 PUSH2 0x99 SWAP2 SWAP1 PUSH2 0x4DF JUMP JUMPDEST PUSH2 0x1B5 JUMP JUMPDEST STOP JUMPDEST PUSH2 0xA8 PUSH2 0x284 JUMP JUMPDEST PUSH1 0x40 MLOAD PUSH2 0xB5 SWAP2 SWAP1 PUSH2 0x560 JUMP JUMPDEST PUSH1 0x40 MLOAD DUP1 SWAP2 SUB SWAP1 RETURN JUMPDEST PUSH2 0xD8 PUSH1 0x4 DUP1 CALLDATASIZE SUB DUP2 ADD SWAP1 PUSH2 0xD3 SWAP2 SWAP1 PUSH2 0x5A7 JUMP JUMPDEST PUSH2 0x2AD JUMP JUMPDEST STOP JUMPDEST PUSH1 0x0 PUSH1 0x1 PUSH1 0x0 DUP2 SLOAD DUP1 SWAP3 SWAP2 SWAP1 PUSH2 0xEF SWAP1 PUSH2 0x603 JUMP JUMPDEST SWAP2 SWAP1 POP SSTORE POP PUSH1 0x0 PUSH1 0x2 SLOAD TIMESTAMP CALLER PUSH1 0x1 SLOAD PUSH1 0x40 MLOAD PUSH1 0x20 ADD PUSH2 0x110 SWAP4 SWAP3 SWAP2 SWAP1 PUSH2 0x6B4 JUMP JUMPDEST PUSH1 0x40 MLOAD PUSH1 0x20 DUP2 DUP4 SUB SUB DUP2 MSTORE SWAP1 PUSH1 0x40 MSTORE DUP1 MLOAD SWAP1 PUSH1 0x20 ADD KECCAK256 PUSH1 0x0 SHR PUSH2 0x133 SWAP2 SWAP1 PUSH2 0x720 JUMP JUMPDEST SWAP1 POP PUSH1 0x1 PUSH1 0x3 PUSH1 0x0 DUP4 DUP2 MSTORE PUSH1 0x20 ADD SWAP1 DUP2 MSTORE PUSH1 0x20 ADD PUSH1 0x0 KECCAK256 PUSH1 0x0 PUSH2 0x100 EXP DUP2 SLOAD DUP2 PUSH1 0xFF MUL NOT AND SWAP1 DUP4 ISZERO ISZERO MUL OR SWAP1 SSTORE POP PUSH32 0x3D50A0C24E97813F35595D2F1F37DBF421D5E97F37ABD4E222853E9B9C82C8D5 CALLER DUP3 PUSH1 0x40 MLOAD PUSH2 0x192 SWAP3 SWAP2 SWAP1 PUSH2 0x751 JUMP JUMPDEST PUSH1 0x40 MLOAD DUP1 SWAP2 SUB SWAP1 LOG1 DUP1 SWAP2 POP POP SWAP1 JUMP JUMPDEST PUSH2 0x1A9 PUSH2 0x330 JUMP JUMPDEST PUSH2 0x1B3 PUSH1 0x0 PUSH2 0x3AE JUMP JUMPDEST JUMP JUMPDEST PUSH2 0x1BD PUSH2 0x330 JUMP JUMPDEST PUSH1 0x1 ISZERO ISZERO PUSH1 0x3 PUSH1 0x0 DUP4 DUP2 MSTORE PUSH1 0x20 ADD SWAP1 DUP2 MSTORE PUSH1 0x20 ADD PUSH1 0x0 KECCAK256 PUSH1 0x0 SWAP1 SLOAD SWAP1 PUSH2 0x100 EXP SWAP1 DIV PUSH1 0xFF AND ISZERO ISZERO EQ PUSH2 0x224 JUMPI PUSH1 0x40 MLOAD PUSH32 0x8C379A000000000000000000000000000000000000000000000000000000000 DUP2 MSTORE PUSH1 0x4 ADD PUSH2 0x21B SWAP1 PUSH2 0x7D7 JUMP JUMPDEST PUSH1 0x40 MLOAD DUP1 SWAP2 SUB SWAP1 REVERT JUMPDEST PUSH1 0x3 PUSH1 0x0 DUP3 DUP2 MSTORE PUSH1 0x20 ADD SWAP1 DUP2 MSTORE PUSH1 0x20 ADD PUSH1 0x0 KECCAK256 PUSH1 0x0 PUSH2 0x100 EXP DUP2 SLOAD SWAP1 PUSH1 0xFF MUL NOT AND SWAP1 SSTORE PUSH32 0x91B860381268A473101DE3379ABBB70ABF7EA6C9D1735CF58B9816479FF3B727 DUP3 CALLER PUSH1 0x40 MLOAD PUSH2 0x278 SWAP3 SWAP2 SWAP1 PUSH2 0x7F7 JUMP JUMPDEST PUSH1 0x40 MLOAD DUP1 SWAP2 SUB SWAP1 LOG1 POP POP JUMP JUMPDEST PUSH1 0x0 DUP1 PUSH1 0x0 SWAP1 SLOAD SWAP1 PUSH2 0x100 EXP SWAP1 DIV PUSH20 0xFFFFFFFFFFFFFFFFFFFFFFFFFFFFFFFFFFFFFFFF AND SWAP1 POP SWAP1 JUMP JUMPDEST PUSH2 0x2B5 PUSH2 0x330 JUMP JUMPDEST PUSH1 0x0 PUSH20 0xFFFFFFFFFFFFFFFFFFFFFFFFFFFFFFFFFFFFFFFF AND DUP2 PUSH20 0xFFFFFFFFFFFFFFFFFFFFFFFFFFFFFFFFFFFFFFFF AND SUB PUSH2 0x324 JUMPI PUSH1 0x40 MLOAD PUSH32 0x8C379A000000000000000000000000000000000000000000000000000000000 DUP2 MSTORE PUSH1 0x4 ADD PUSH2 0x31B SWAP1 PUSH2 0x892 JUMP JUMPDEST PUSH1 0x40 MLOAD DUP1 SWAP2 SUB SWAP1 REVERT JUMPDEST PUSH2 0x32D DUP2 PUSH2 0x3AE JUMP JUMPDEST POP JUMP JUMPDEST PUSH2 0x338 PUSH2 0x472 JUMP JUMPDEST PUSH20 0xFFFFFFFFFFFFFFFFFFFFFFFFFFFFFFFFFFFFFFFF AND PUSH2 0x356 PUSH2 0x284 JUMP JUMPDEST PUSH20 0xFFFFFFFFFFFFFFFFFFFFFFFFFFFFFFFFFFFFFFFF AND EQ PUSH2 0x3AC JUMPI PUSH1 0x40 MLOAD PUSH32 0x8C379A000000000000000000000000000000000000000000000000000000000 DUP2 MSTORE PUSH1 0x4 ADD PUSH2 0x3A3 SWAP1 PUSH2 0x8FE JUMP JUMPDEST PUSH1 0x40 MLOAD DUP1 SWAP2 SUB SWAP1 REVERT JUMPDEST JUMP JUMPDEST PUSH1 0x0 DUP1 PUSH1 0x0 SWAP1 SLOAD SWAP1 PUSH2 0x100 EXP SWAP1 DIV PUSH20 0xFFFFFFFFFFFFFFFFFFFFFFFFFFFFFFFFFFFFFFFF AND SWAP1 POP DUP2 PUSH1 0x0 DUP1 PUSH2 0x100 EXP DUP2 SLOAD DUP2 PUSH20 0xFFFFFFFFFFFFFFFFFFFFFFFFFFFFFFFFFFFFFFFF MUL NOT AND SWAP1 DUP4 PUSH20 0xFFFFFFFFFFFFFFFFFFFFFFFFFFFFFFFFFFFFFFFF AND MUL OR SWAP1 SSTORE POP DUP2 PUSH20 0xFFFFFFFFFFFFFFFFFFFFFFFFFFFFFFFFFFFFFFFF AND DUP2 PUSH20 0xFFFFFFFFFFFFFFFFFFFFFFFFFFFFFFFFFFFFFFFF AND PUSH32 0x8BE0079C531659141344CD1FD0A4F28419497F9722A3DAAFE3B4186F6B6457E0 PUSH1 0x40 MLOAD PUSH1 0x40 MLOAD DUP1 SWAP2 SUB SWAP1 LOG3 POP POP JUMP JUMPDEST PUSH1 0x0 CALLER SWAP1 POP SWAP1 JUMP JUMPDEST PUSH1 0x0 DUP2 SWAP1 POP SWAP2 SWAP1 POP JUMP JUMPDEST PUSH2 0x48D DUP2 PUSH2 0x47A JUMP JUMPDEST DUP3 MSTORE POP POP JUMP JUMPDEST PUSH1 0x0 PUSH1 0x20 DUP3 ADD SWAP1 POP PUSH2 0x4A8 PUSH1 0x0 DUP4 ADD DUP5 PUSH2 0x484 JUMP JUMPDEST SWAP3 SWAP2 POP POP JUMP JUMPDEST PUSH1 0x0 DUP1 REVERT JUMPDEST PUSH2 0x4BC DUP2 PUSH2 0x47A JUMP JUMPDEST DUP2 EQ PUSH2 0x4C7 JUMPI PUSH1 0x0 DUP1 REVERT JUMPDEST POP JUMP JUMPDEST PUSH1 0x0 DUP2 CALLDATALOAD SWAP1 POP PUSH2 0x4D9 DUP2 PUSH2 0x4B3 JUMP JUMPDEST SWAP3 SWAP2 POP POP JUMP JUMPDEST PUSH1 0x0 DUP1 PUSH1 0x40 DUP4 DUP6 SUB SLT ISZERO PUSH2 0x4F6 JUMPI PUSH2 0x4F5 PUSH2 0x4AE JUMP JUMPDEST JUMPDEST PUSH1 0x0 PUSH2 0x504 DUP6 DUP3 DUP7 ADD PUSH2 0x4CA JUMP JUMPDEST SWAP3 POP POP PUSH1 0x20 PUSH2 0x515 DUP6 DUP3 DUP7 ADD PUSH2 0x4CA JUMP JUMPDEST SWAP2 POP POP SWAP3 POP SWAP3 SWAP1 POP JUMP JUMPDEST PUSH1 0x0 PUSH20 0xFFFFFFFFFFFFFFFFFFFFFFFFFFFFFFFFFFFFFFFF DUP3 AND SWAP1 POP SWAP2 SWAP1 POP JUMP JUMPDEST PUSH1 0x0 PUSH2 0x54A DUP3 PUSH2 0x51F JUMP JUMPDEST SWAP1 POP SWAP2 SWAP1 POP JUMP JUMPDEST PUSH2 0x55A DUP2 PUSH2 0x53F JUMP JUMPDEST DUP3 MSTORE POP POP JUMP JUMPDEST PUSH1 0x0 PUSH1 0x20 DUP3 ADD SWAP1 POP PUSH2 0x575 PUSH1 0x0 DUP4 ADD DUP5 PUSH2 0x551 JUMP JUMPDEST SWAP3 SWAP2 POP POP JUMP JUMPDEST PUSH2 0x584 DUP2 PUSH2 0x53F JUMP JUMPDEST DUP2 EQ PUSH2 0x58F JUMPI PUSH1 0x0 DUP1 REVERT JUMPDEST POP JUMP JUMPDEST PUSH1 0x0 DUP2 CALLDATALOAD SWAP1 POP PUSH2 0x5A1 DUP2 PUSH2 0x57B JUMP JUMPDEST SWAP3 SWAP2 POP POP JUMP JUMPDEST PUSH1 0x0 PUSH1 0x20 DUP3 DUP5 SUB SLT ISZERO PUSH2 0x5BD JUMPI PUSH2 0x5BC PUSH2 0x4AE JUMP JUMPDEST JUMPDEST PUSH1 0x0 PUSH2 0x5CB DUP5 DUP3 DUP6 ADD PUSH2 0x592 JUMP JUMPDEST SWAP2 POP POP SWAP3 SWAP2 POP POP JUMP JUMPDEST PUSH32 0x4E487B7100000000000000000000000000000000000000000000000000000000 PUSH1 0x0 MSTORE PUSH1 0x11 PUSH1 0x4 MSTORE PUSH1 0x24 PUSH1 0x0 REVERT JUMPDEST PUSH1 0x0 PUSH2 0x60E DUP3 PUSH2 0x47A JUMP JUMPDEST SWAP2 POP PUSH32 0xFFFFFFFFFFFFFFFFFFFFFFFFFFFFFFFFFFFFFFFFFFFFFFFFFFFFFFFFFFFFFFFF DUP3 SUB PUSH2 0x640 JUMPI PUSH2 0x63F PUSH2 0x5D4 JUMP JUMPDEST JUMPDEST PUSH1 0x1 DUP3 ADD SWAP1 POP SWAP2 SWAP1 POP JUMP JUMPDEST PUSH1 0x0 DUP2 SWAP1 POP SWAP2 SWAP1 POP JUMP JUMPDEST PUSH2 0x666 PUSH2 0x661 DUP3 PUSH2 0x47A JUMP JUMPDEST PUSH2 0x64B JUMP JUMPDEST DUP3 MSTORE POP POP JUMP JUMPDEST PUSH1 0x0 DUP2 PUSH1 0x60 SHL SWAP1 POP SWAP2 SWAP1 POP JUMP JUMPDEST PUSH1 0x0 PUSH2 0x684 DUP3 PUSH2 0x66C JUMP JUMPDEST SWAP1 POP SWAP2 SWAP1 POP JUMP JUMPDEST PUSH1 0x0 PUSH2 0x696 DUP3 PUSH2 0x679 JUMP JUMPDEST SWAP1 POP SWAP2 SWAP1 POP JUMP JUMPDEST PUSH2 0x6AE PUSH2 0x6A9 DUP3 PUSH2 0x53F JUMP JUMPDEST PUSH2 0x68B JUMP JUMPDEST DUP3 MSTORE POP POP JUMP JUMPDEST PUSH1 0x0 PUSH2 0x6C0 DUP3 DUP7 PUSH2 0x655 JUMP JUMPDEST PUSH1 0x20 DUP3 ADD SWAP2 POP PUSH2 0x6D0 DUP3 DUP6 PUSH2 0x69D JUMP JUMPDEST PUSH1 0x14 DUP3 ADD SWAP2 POP PUSH2 0x6E0 DUP3 DUP5 PUSH2 0x655 JUMP JUMPDEST PUSH1 0x20 DUP3 ADD SWAP2 POP DUP2 SWAP1 POP SWAP5 SWAP4 POP POP POP POP JUMP JUMPDEST PUSH32 0x4E487B7100000000000000000000000000000000000000000000000000000000 PUSH1 0x0 MSTORE PUSH1 0x12 PUSH1 0x4 MSTORE PUSH1 0x24 PUSH1 0x0 REVERT JUMPDEST PUSH1 0x0 PUSH2 0x72B DUP3 PUSH2 0x47A JUMP JUMPDEST SWAP2 POP PUSH2 0x736 DUP4 PUSH2 0x47A JUMP JUMPDEST SWAP3 POP DUP3 PUSH2 0x746 JUMPI PUSH2 0x745 PUSH2 0x6F1 JUMP JUMPDEST JUMPDEST DUP3 DUP3 MOD SWAP1 POP SWAP3 SWAP2 POP POP JUMP JUMPDEST PUSH1 0x0 PUSH1 0x40 DUP3 ADD SWAP1 POP PUSH2 0x766 PUSH1 0x0 DUP4 ADD DUP6 PUSH2 0x551 JUMP JUMPDEST PUSH2 0x773 PUSH1 0x20 DUP4 ADD DUP5 PUSH2 0x484 JUMP JUMPDEST SWAP4 SWAP3 POP POP POP JUMP JUMPDEST PUSH1 0x0 DUP3 DUP3 MSTORE PUSH1 0x20 DUP3 ADD SWAP1 POP SWAP3 SWAP2 POP POP JUMP JUMPDEST PUSH32 0x5468697320494420646F6573206E6F742065786973742E000000000000000000 PUSH1 0x0 DUP3 ADD MSTORE POP JUMP JUMPDEST PUSH1 0x0 PUSH2 0x7C1 PUSH1 0x17 DUP4 PUSH2 0x77A JUMP JUMPDEST SWAP2 POP PUSH2 0x7CC DUP3 PUSH2 0x78B JUMP JUMPDEST PUSH1 0x20 DUP3 ADD SWAP1 POP SWAP2 SWAP1 POP JUMP JUMPDEST PUSH1 0x0 PUSH1 0x20 DUP3 ADD SWAP1 POP DUP2 DUP2 SUB PUSH1 0x0 DUP4 ADD MSTORE PUSH2 0x7F0 DUP2 PUSH2 0x7B4 JUMP JUMPDEST SWAP1 POP SWAP2 SWAP1 POP JUMP JUMPDEST PUSH1 0x0 PUSH1 0x40 DUP3 ADD SWAP1 POP PUSH2 0x80C PUSH1 0x0 DUP4 ADD DUP6 PUSH2 0x484 JUMP JUMPDEST PUSH2 0x819 PUSH1 0x20 DUP4 ADD DUP5 PUSH2 0x551 JUMP JUMPDEST SWAP4 SWAP3 POP POP POP JUMP JUMPDEST PUSH32 0x4F776E61626C653A206E6577206F776E657220697320746865207A65726F2061 PUSH1 0x0 DUP3 ADD MSTORE PUSH32 0x6464726573730000000000000000000000000000000000000000000000000000 PUSH1 0x20 DUP3 ADD MSTORE POP JUMP JUMPDEST PUSH1 0x0 PUSH2 0x87C PUSH1 0x26 DUP4 PUSH2 0x77A JUMP JUMPDEST SWAP2 POP PUSH2 0x887 DUP3 PUSH2 0x820 JUMP JUMPDEST PUSH1 0x40 DUP3 ADD SWAP1 POP SWAP2 SWAP1 POP JUMP JUMPDEST PUSH1 0x0 PUSH1 0x20 DUP3 ADD SWAP1 POP DUP2 DUP2 SUB PUSH1 0x0 DUP4 ADD MSTORE PUSH2 0x8AB DUP2 PUSH2 0x86F JUMP JUMPDEST SWAP1 POP SWAP2 SWAP1 POP JUMP JUMPDEST PUSH32 0x4F776E61626C653A2063616C6C6572206973206E6F7420746865206F776E6572 PUSH1 0x0 DUP3 ADD MSTORE POP JUMP JUMPDEST PUSH1 0x0 PUSH2 0x8E8 PUSH1 0x20 DUP4 PUSH2 0x77A JUMP JUMPDEST SWAP2 POP PUSH2 0x8F3 DUP3 PUSH2 0x8B2 JUMP JUMPDEST PUSH1 0x20 DUP3 ADD SWAP1 POP SWAP2 SWAP1 POP JUMP JUMPDEST PUSH1 0x0 PUSH1 0x20 DUP3 ADD SWAP1 POP DUP2 DUP2 SUB PUSH1 0x0 DUP4 ADD MSTORE PUSH2 0x917 DUP2 PUSH2 0x8DB JUMP JUMPDEST SWAP1 POP SWAP2 SWAP1 POP JUMP INVALID LOG2 PUSH5 0x6970667358 0x22 SLT KECCAK256 PUSH31 0xD23744FB7F5E7F994F0EC8C8C7D30EA0B1C9C6A1D4D94C7184D722E6807FD PUSH5 0x736F6C6343 STOP ADDMOD GT STOP CALLER "},"methodIdentifiers":{"getLatestEthPrice()":"30c0b9ec","owner()":"8da5cb5b","renounceOwnership()":"715018a6","setLatestEthPrice(uint256,uint256)":"7262c33f","transferOwnership(address)":"f2fde38b"}}}}}