{
  "_format": "hh-sol-artifact-1",
  "contractName": "PriceConsumerV3",
  "sourceName": "contracts/PriceConsumerV3.sol",
  "abi": [
    {
      "inputs": [],
      "stateMutability": "nonpayable",
      "type": "constructor"
    },
    {
      "inputs": [],
      "name": "getLatestEthPrice",
      "outputs": [
        {
          "internalType": "int256",
          "name": "",
          "type": "int256"
        }
      ],
      "stateMutability": "view",
      "type": "function"
    },
    {
      "inputs": [],
      "name": "priceFeed",
      "outputs": [
        {
          "internalType": "contract AggregatorV3Interface",
          "name": "",
          "type": "address"
        }
      ],
      "stateMutability": "view",
      "type": "function"
    }
  ],
  "bytecode": "0x608060405234801561001057600080fd5b5073d4a33860578de61dbabdc8bfdb98fd742fa7028e6000806101000a81548173ffffffffffffffffffffffffffffffffffffffff021916908373ffffffffffffffffffffffffffffffffffffffff16021790555061037f806100746000396000f3fe608060405234801561001057600080fd5b50600436106100365760003560e01c806330c0b9ec1461003b578063741bef1a14610059575b600080fd5b610043610077565b6040516100509190610170565b60405180910390f35b610061610133565b60405161006e919061020a565b60405180910390f35b60008060008060008060008054906101000a900473ffffffffffffffffffffffffffffffffffffffff1673ffffffffffffffffffffffffffffffffffffffff1663feaf968c6040518163ffffffff1660e01b815260040160a06040518083038186803b1580156100e657600080fd5b505afa1580156100fa573d6000803e3d6000fd5b505050506040513d601f19601f8201168201806040525081019061011e91906102ce565b94509450945094509450839550505050505090565b60008054906101000a900473ffffffffffffffffffffffffffffffffffffffff1681565b6000819050919050565b61016a81610157565b82525050565b60006020820190506101856000830184610161565b92915050565b600073ffffffffffffffffffffffffffffffffffffffff82169050919050565b6000819050919050565b60006101d06101cb6101c68461018b565b6101ab565b61018b565b9050919050565b60006101e2826101b5565b9050919050565b60006101f4826101d7565b9050919050565b610204816101e9565b82525050565b600060208201905061021f60008301846101fb565b92915050565b600080fd5b600069ffffffffffffffffffff82169050919050565b6102498161022a565b811461025457600080fd5b50565b60008151905061026681610240565b92915050565b61027581610157565b811461028057600080fd5b50565b6000815190506102928161026c565b92915050565b6000819050919050565b6102ab81610298565b81146102b657600080fd5b50565b6000815190506102c8816102a2565b92915050565b600080600080600060a086880312156102ea576102e9610225565b5b60006102f888828901610257565b955050602061030988828901610283565b945050604061031a888289016102b9565b935050606061032b888289016102b9565b925050608061033c88828901610257565b915050929550929590935056fea26469706673582212200ac353ea9a8f502e5716d3abbcced9f4eba24463c00079bf5696bd0afb2ce92a64736f6c63430008090033",
  "linkReferences": {},
  "deployedLinkReferences": {}
}