{
  "_format": "hh-sol-artifact-1",
  "contractName": "CallerContract",
  "sourceName": "contracts/CallerContract.sol",
  "abi": [
    {
      "anonymous": false,
      "inputs": [
        {
          "indexed": false,
          "internalType": "uint256",
          "name": "newPrice",
          "type": "uint256"
        },
        {
          "indexed": false,
          "internalType": "uint256",
          "name": "id",
          "type": "uint256"
        }
      ],
      "name": "PriceUpdatedEvent",
      "type": "event"
    },
    {
      "anonymous": false,
      "inputs": [
        {
          "indexed": true,
          "internalType": "uint256",
          "name": "id",
          "type": "uint256"
        }
      ],
      "name": "ReceivedNewRequestIdEvent",
      "type": "event"
    },
    {
      "anonymous": false,
      "inputs": [
        {
          "indexed": true,
          "internalType": "address",
          "name": "newOracleAddress",
          "type": "address"
        }
      ],
      "name": "newOracleAddressEvent",
      "type": "event"
    },
    {
      "inputs": [
        {
          "internalType": "uint256",
          "name": "_id",
          "type": "uint256"
        },
        {
          "internalType": "uint256",
          "name": "_price",
          "type": "uint256"
        }
      ],
      "name": "callback",
      "outputs": [],
      "stateMutability": "nonpayable",
      "type": "function"
    },
    {
      "inputs": [
        {
          "internalType": "address",
          "name": "_oracleAddress",
          "type": "address"
        }
      ],
      "name": "setOracleInstanceAddress",
      "outputs": [],
      "stateMutability": "nonpayable",
      "type": "function"
    },
    {
      "inputs": [],
      "name": "updateEthPrice",
      "outputs": [],
      "stateMutability": "nonpayable",
      "type": "function"
    }
  ],
  "bytecode": "0x608060405234801561001057600080fd5b506106aa806100206000396000f3fe608060405234801561001057600080fd5b50600436106100415760003560e01c806323c7e4a214610046578063b5d73ba414610050578063e9e17a9e1461006c575b600080fd5b61004e610088565b005b61006a60048036038101906100659190610420565b61017b565b005b610086600480360381019061008191906104be565b6102d9565b005b6000600160009054906101000a900473ffffffffffffffffffffffffffffffffffffffff1673ffffffffffffffffffffffffffffffffffffffff166330c0b9ec6040518163ffffffff1660e01b81526004016020604051808303816000875af11580156100f9573d6000803e3d6000fd5b505050506040513d601f19601f8201168201806040525081019061011d9190610500565b905060016003600083815260200190815260200160002060006101000a81548160ff021916908315150217905550807f3ed150819af981e387450beb90ec379b8b322150dbb299d492b108c59a623e4b60405160405180910390a250565b600260009054906101000a900473ffffffffffffffffffffffffffffffffffffffff1673ffffffffffffffffffffffffffffffffffffffff163373ffffffffffffffffffffffffffffffffffffffff161461020b576040517f08c379a00000000000000000000000000000000000000000000000000000000081526004016102029061058a565b60405180910390fd5b600115156003600084815260200190815260200160002060009054906101000a900460ff16151514610272576040517f08c379a00000000000000000000000000000000000000000000000000000000081526004016102699061061c565b60405180910390fd5b806000819055506003600083815260200190815260200160002060006101000a81549060ff02191690557f6b69e4f2aedf7e65a79ecaf16e8869b2b99c87e341f2c51286bfd4a7fc3b996981836040516102cd92919061064b565b60405180910390a15050565b80600260006101000a81548173ffffffffffffffffffffffffffffffffffffffff021916908373ffffffffffffffffffffffffffffffffffffffff160217905550600260009054906101000a900473ffffffffffffffffffffffffffffffffffffffff16600160006101000a81548173ffffffffffffffffffffffffffffffffffffffff021916908373ffffffffffffffffffffffffffffffffffffffff160217905550600260009054906101000a900473ffffffffffffffffffffffffffffffffffffffff1673ffffffffffffffffffffffffffffffffffffffff167f441e3b056b114797955165bd03bb8393fc1658a713f09225de4745a8d068bf7d60405160405180910390a250565b600080fd5b6000819050919050565b6103fd816103ea565b811461040857600080fd5b50565b60008135905061041a816103f4565b92915050565b60008060408385031215610437576104366103e5565b5b60006104458582860161040b565b92505060206104568582860161040b565b9150509250929050565b600073ffffffffffffffffffffffffffffffffffffffff82169050919050565b600061048b82610460565b9050919050565b61049b81610480565b81146104a657600080fd5b50565b6000813590506104b881610492565b92915050565b6000602082840312156104d4576104d36103e5565b5b60006104e2848285016104a9565b91505092915050565b6000815190506104fa816103f4565b92915050565b600060208284031215610516576105156103e5565b5b6000610524848285016104eb565b91505092915050565b600082825260208201905092915050565b7f596f7520617265206e6f7420746865206f7261636c652e000000000000000000600082015250565b600061057460178361052d565b915061057f8261053e565b602082019050919050565b600060208201905081810360008301526105a381610567565b9050919050565b7f5468697320494420646f6573206e6f7420657869737420696e2043616c6c657260008201527f436f6e74726163742e0000000000000000000000000000000000000000000000602082015250565b600061060660298361052d565b9150610611826105aa565b604082019050919050565b60006020820190508181036000830152610635816105f9565b9050919050565b610645816103ea565b82525050565b6000604082019050610660600083018561063c565b61066d602083018461063c565b939250505056fea26469706673582212204f9f9386d2078532375439ac2d086141ad0815695697c68629e477cca8afbec264736f6c63430008110033",
  "linkReferences": {},
  "deployedLinkReferences": {}
}