{
  "_format": "hh-sol-artifact-1",
  "contractName": "CallerContract",
  "sourceName": "contracts/CallerContract.sol",
  "abi": [
    {
      "anonymous": false,
      "inputs": [
        {
          "indexed": false,
          "internalType": "uint256",
          "name": "newPrice",
          "type": "uint256"
        },
        {
          "indexed": false,
          "internalType": "uint256",
          "name": "id",
          "type": "uint256"
        }
      ],
      "name": "PriceUpdatedEvent",
      "type": "event"
    },
    {
      "anonymous": false,
      "inputs": [
        {
          "indexed": true,
          "internalType": "uint256",
          "name": "id",
          "type": "uint256"
        }
      ],
      "name": "ReceivedNewRequestIdEvent",
      "type": "event"
    },
    {
      "anonymous": false,
      "inputs": [
        {
          "indexed": true,
          "internalType": "address",
          "name": "newOracleAddress",
          "type": "address"
        }
      ],
      "name": "newOracleAddressEvent",
      "type": "event"
    },
    {
      "inputs": [
        {
          "internalType": "uint256",
          "name": "_id",
          "type": "uint256"
        },
        {
          "internalType": "uint256",
          "name": "_price",
          "type": "uint256"
        }
      ],
      "name": "callback",
      "outputs": [],
      "stateMutability": "nonpayable",
      "type": "function"
    },
    {
      "inputs": [
        {
          "internalType": "address",
          "name": "_oracleAddress",
          "type": "address"
        }
      ],
      "name": "setOracleInstanceAddress",
      "outputs": [],
      "stateMutability": "nonpayable",
      "type": "function"
    },
    {
      "inputs": [],
      "name": "updateEthPrice",
      "outputs": [],
      "stateMutability": "nonpayable",
      "type": "function"
    }
  ],
  "bytecode": "0x608060405234801561001057600080fd5b506106b9806100206000396000f3fe608060405234801561001057600080fd5b50600436106100415760003560e01c806323c7e4a214610046578063b5d73ba414610050578063e9e17a9e1461006c575b600080fd5b61004e610088565b005b61006a6004803603810190610065919061042f565b61018a565b005b610086600480360381019061008191906104cd565b6102e8565b005b6000600160009054906101000a900473ffffffffffffffffffffffffffffffffffffffff1673ffffffffffffffffffffffffffffffffffffffff166330c0b9ec6040518163ffffffff1660e01b8152600401602060405180830381600087803b1580156100f457600080fd5b505af1158015610108573d6000803e3d6000fd5b505050506040513d601f19601f8201168201806040525081019061012c919061050f565b905060016003600083815260200190815260200160002060006101000a81548160ff021916908315150217905550807f3ed150819af981e387450beb90ec379b8b322150dbb299d492b108c59a623e4b60405160405180910390a250565b600260009054906101000a900473ffffffffffffffffffffffffffffffffffffffff1673ffffffffffffffffffffffffffffffffffffffff163373ffffffffffffffffffffffffffffffffffffffff161461021a576040517f08c379a000000000000000000000000000000000000000000000000000000000815260040161021190610599565b60405180910390fd5b600115156003600084815260200190815260200160002060009054906101000a900460ff16151514610281576040517f08c379a00000000000000000000000000000000000000000000000000000000081526004016102789061062b565b60405180910390fd5b806000819055506003600083815260200190815260200160002060006101000a81549060ff02191690557f6b69e4f2aedf7e65a79ecaf16e8869b2b99c87e341f2c51286bfd4a7fc3b996981836040516102dc92919061065a565b60405180910390a15050565b80600260006101000a81548173ffffffffffffffffffffffffffffffffffffffff021916908373ffffffffffffffffffffffffffffffffffffffff160217905550600260009054906101000a900473ffffffffffffffffffffffffffffffffffffffff16600160006101000a81548173ffffffffffffffffffffffffffffffffffffffff021916908373ffffffffffffffffffffffffffffffffffffffff160217905550600260009054906101000a900473ffffffffffffffffffffffffffffffffffffffff1673ffffffffffffffffffffffffffffffffffffffff167f441e3b056b114797955165bd03bb8393fc1658a713f09225de4745a8d068bf7d60405160405180910390a250565b600080fd5b6000819050919050565b61040c816103f9565b811461041757600080fd5b50565b60008135905061042981610403565b92915050565b60008060408385031215610446576104456103f4565b5b60006104548582860161041a565b92505060206104658582860161041a565b9150509250929050565b600073ffffffffffffffffffffffffffffffffffffffff82169050919050565b600061049a8261046f565b9050919050565b6104aa8161048f565b81146104b557600080fd5b50565b6000813590506104c7816104a1565b92915050565b6000602082840312156104e3576104e26103f4565b5b60006104f1848285016104b8565b91505092915050565b60008151905061050981610403565b92915050565b600060208284031215610525576105246103f4565b5b6000610533848285016104fa565b91505092915050565b600082825260208201905092915050565b7f596f7520617265206e6f7420746865206f7261636c652e000000000000000000600082015250565b600061058360178361053c565b915061058e8261054d565b602082019050919050565b600060208201905081810360008301526105b281610576565b9050919050565b7f5468697320494420646f6573206e6f7420657869737420696e2043616c6c657260008201527f436f6e74726163742e0000000000000000000000000000000000000000000000602082015250565b600061061560298361053c565b9150610620826105b9565b604082019050919050565b6000602082019050818103600083015261064481610608565b9050919050565b610654816103f9565b82525050565b600060408201905061066f600083018561064b565b61067c602083018461064b565b939250505056fea26469706673582212203118e694fcd985b28fd86b6534127e9b0f9a2a6efcb192d888df4c93818a65d064736f6c63430008090033",
  "linkReferences": {},
  "deployedLinkReferences": {}
}