{
  "_format": "hh-sol-artifact-1",
  "contractName": "EthPriceOracle",
  "sourceName": "contracts/oracle/EthPriceOracle.sol",
  "abi": [
    {
      "anonymous": false,
      "inputs": [
        {
          "indexed": false,
          "internalType": "address",
          "name": "callerAddress",
          "type": "address"
        },
        {
          "indexed": false,
          "internalType": "uint256",
          "name": "id",
          "type": "uint256"
        }
      ],
      "name": "GetLatestEthPriceEvent",
      "type": "event"
    },
    {
      "anonymous": false,
      "inputs": [
        {
          "indexed": true,
          "internalType": "address",
          "name": "previousOwner",
          "type": "address"
        },
        {
          "indexed": true,
          "internalType": "address",
          "name": "newOwner",
          "type": "address"
        }
      ],
      "name": "OwnershipTransferred",
      "type": "event"
    },
    {
      "anonymous": false,
      "inputs": [
        {
          "indexed": false,
          "internalType": "uint256",
          "name": "ethPrice",
          "type": "uint256"
        },
        {
          "indexed": false,
          "internalType": "address",
          "name": "callerAddress",
          "type": "address"
        }
      ],
      "name": "SetLatestEthPriceEvent",
      "type": "event"
    },
    {
      "inputs": [],
      "name": "getLatestEthPrice",
      "outputs": [
        {
          "internalType": "uint256",
          "name": "",
          "type": "uint256"
        }
      ],
      "stateMutability": "nonpayable",
      "type": "function"
    },
    {
      "inputs": [],
      "name": "owner",
      "outputs": [
        {
          "internalType": "address",
          "name": "",
          "type": "address"
        }
      ],
      "stateMutability": "view",
      "type": "function"
    },
    {
      "inputs": [],
      "name": "renounceOwnership",
      "outputs": [],
      "stateMutability": "nonpayable",
      "type": "function"
    },
    {
      "inputs": [
        {
          "internalType": "uint256",
          "name": "_ethPrice",
          "type": "uint256"
        },
        {
          "internalType": "address",
          "name": "_callerAddress",
          "type": "address"
        },
        {
          "internalType": "uint256",
          "name": "_id",
          "type": "uint256"
        }
      ],
      "name": "setLatestEthPrice",
      "outputs": [],
      "stateMutability": "nonpayable",
      "type": "function"
    },
    {
      "inputs": [
        {
          "internalType": "address",
          "name": "newOwner",
          "type": "address"
        }
      ],
      "name": "transferOwnership",
      "outputs": [],
      "stateMutability": "nonpayable",
      "type": "function"
    }
  ],
  "bytecode": "0x608060405260006001556103e860025534801561001b57600080fd5b5061003861002d61003d60201b60201c565b61004560201b60201c565b610109565b600033905090565b60008060009054906101000a900473ffffffffffffffffffffffffffffffffffffffff169050816000806101000a81548173ffffffffffffffffffffffffffffffffffffffff021916908373ffffffffffffffffffffffffffffffffffffffff1602179055508173ffffffffffffffffffffffffffffffffffffffff168173ffffffffffffffffffffffffffffffffffffffff167f8be0079c531659141344cd1fd0a4f28419497f9722a3daafe3b4186f6b6457e060405160405180910390a35050565b610a2a806101186000396000f3fe608060405234801561001057600080fd5b50600436106100575760003560e01c806330c0b9ec1461005c578063715018a61461007a5780638da5cb5b14610084578063cf642f1f146100a2578063f2fde38b146100be575b600080fd5b6100646100da565b6040516100719190610507565b60405180910390f35b6100826101a1565b005b61008c6101b5565b6040516100999190610563565b60405180910390f35b6100bc60048036038101906100b791906105db565b6101de565b005b6100d860048036038101906100d3919061062e565b610321565b005b6000600160008154809291906100ef9061068a565b9190505550600060025442336001546040516020016101109392919061073b565b6040516020818303038152906040528051906020012060001c61013391906107a7565b905060016003600083815260200190815260200160002060006101000a81548160ff0219169083151502179055507f3d50a0c24e97813f35595d2f1f37dbf421d5e97f37abd4e222853e9b9c82c8d533826040516101929291906107d8565b60405180910390a18091505090565b6101a96103a4565b6101b36000610422565b565b60008060009054906101000a900473ffffffffffffffffffffffffffffffffffffffff16905090565b6101e66103a4565b600115156003600083815260200190815260200160002060009054906101000a900460ff1615151461024d576040517f08c379a000000000000000000000000000000000000000000000000000000000815260040161024490610884565b60405180910390fd5b6003600082815260200190815260200160002060006101000a81549060ff021916905560008290508073ffffffffffffffffffffffffffffffffffffffff1663b5d73ba483866040518363ffffffff1660e01b81526004016102b09291906108a4565b600060405180830381600087803b1580156102ca57600080fd5b505af11580156102de573d6000803e3d6000fd5b505050507f91b860381268a473101de3379abbb70abf7ea6c9d1735cf58b9816479ff3b72784336040516103139291906108cd565b60405180910390a150505050565b6103296103a4565b600073ffffffffffffffffffffffffffffffffffffffff168173ffffffffffffffffffffffffffffffffffffffff1603610398576040517f08c379a000000000000000000000000000000000000000000000000000000000815260040161038f90610968565b60405180910390fd5b6103a181610422565b50565b6103ac6104e6565b73ffffffffffffffffffffffffffffffffffffffff166103ca6101b5565b73ffffffffffffffffffffffffffffffffffffffff1614610420576040517f08c379a0000000000000000000000000000000000000000000000000000000008152600401610417906109d4565b60405180910390fd5b565b60008060009054906101000a900473ffffffffffffffffffffffffffffffffffffffff169050816000806101000a81548173ffffffffffffffffffffffffffffffffffffffff021916908373ffffffffffffffffffffffffffffffffffffffff1602179055508173ffffffffffffffffffffffffffffffffffffffff168173ffffffffffffffffffffffffffffffffffffffff167f8be0079c531659141344cd1fd0a4f28419497f9722a3daafe3b4186f6b6457e060405160405180910390a35050565b600033905090565b6000819050919050565b610501816104ee565b82525050565b600060208201905061051c60008301846104f8565b92915050565b600073ffffffffffffffffffffffffffffffffffffffff82169050919050565b600061054d82610522565b9050919050565b61055d81610542565b82525050565b60006020820190506105786000830184610554565b92915050565b600080fd5b61058c816104ee565b811461059757600080fd5b50565b6000813590506105a981610583565b92915050565b6105b881610542565b81146105c357600080fd5b50565b6000813590506105d5816105af565b92915050565b6000806000606084860312156105f4576105f361057e565b5b60006106028682870161059a565b9350506020610613868287016105c6565b92505060406106248682870161059a565b9150509250925092565b6000602082840312156106445761064361057e565b5b6000610652848285016105c6565b91505092915050565b7f4e487b7100000000000000000000000000000000000000000000000000000000600052601160045260246000fd5b6000610695826104ee565b91507fffffffffffffffffffffffffffffffffffffffffffffffffffffffffffffffff82036106c7576106c661065b565b5b600182019050919050565b6000819050919050565b6106ed6106e8826104ee565b6106d2565b82525050565b60008160601b9050919050565b600061070b826106f3565b9050919050565b600061071d82610700565b9050919050565b61073561073082610542565b610712565b82525050565b600061074782866106dc565b6020820191506107578285610724565b60148201915061076782846106dc565b602082019150819050949350505050565b7f4e487b7100000000000000000000000000000000000000000000000000000000600052601260045260246000fd5b60006107b2826104ee565b91506107bd836104ee565b9250826107cd576107cc610778565b5b828206905092915050565b60006040820190506107ed6000830185610554565b6107fa60208301846104f8565b9392505050565b600082825260208201905092915050565b7f5468697320494420646f6573206e6f7420657869737420696e2045746850726960008201527f63654f7261636c652e0000000000000000000000000000000000000000000000602082015250565b600061086e602983610801565b915061087982610812565b604082019050919050565b6000602082019050818103600083015261089d81610861565b9050919050565b60006040820190506108b960008301856104f8565b6108c660208301846104f8565b9392505050565b60006040820190506108e260008301856104f8565b6108ef6020830184610554565b9392505050565b7f4f776e61626c653a206e6577206f776e657220697320746865207a65726f206160008201527f6464726573730000000000000000000000000000000000000000000000000000602082015250565b6000610952602683610801565b915061095d826108f6565b604082019050919050565b6000602082019050818103600083015261098181610945565b9050919050565b7f4f776e61626c653a2063616c6c6572206973206e6f7420746865206f776e6572600082015250565b60006109be602083610801565b91506109c982610988565b602082019050919050565b600060208201905081810360008301526109ed816109b1565b905091905056fea2646970667358221220d5effb9bd2739697199a12d4165559ce2aa3495dd99b1d8fd8ea1ee6ff02bff864736f6c63430008110033",
  "linkReferences": {},
  "deployedLinkReferences": {}
}